S01300006C616231335F54696D65722E737265631E
S3150800000000000120A9070008010700080F070008DB
S31508000010150700081B070008210700080000000054
S31508000020000000000000000000000000270700088C
S3150800003035070008000000004307000851070008BC
S31508000040F9070008F9070008F9070008F907000882
S31508000050F9070008F9070008F9070008F907000872
S31508000060F9070008F9070008F9070008F907000862
S31508000070F9070008F9070008F9070008F907000852
S31508000080F9070008F9070008F9070008000000004A
S31508000090000000000000000000000000F90700084A
S315080000A0F90700085D070008F9070008F9070008BE
S315080000B0F9070008F9070008F9070008F907000812
S315080000C0F9070008F9070008F9070008F907000802
S315080000D0F9070008F9070008F907000800000000FA
S315080000E0F9070008F9070008F907000800000000EA
S315080000F0000000000000000000000000F9070008EA
S3150800010000000000F9070008F9070008F9070008C9
S3150800011000000000000000000000000000000000D1
S31508000120F9070008F9070008F9070008F9070008A1
S31508000130F9070008000000000000000000000000A9
S31508000140000000000000000000000000F907000899
S31508000150F9070008F9070008F9070008F907000871
S31508000160F9070008F9070008000000000000000071
S315080001700000000000000000000000000000000071
S3150800018000000000F9070008000000000000000059
S30908000190F907000855
S3150800019410B5054C237833B9044B13B10448AFF3AF
S315080001A400800123237010BD0C000020000000000D
S315080001B4581B000808B5034B1BB103490348AFF3A2
S315080001C4008008BD0000000010000020581B00082D
S315080001D453B94AB9002908BF00281CBF4FF0FF319C
S315080001E44FF0FF3000F072B9ADF1080C6DE904CE9A
S315080001F400F006F8DDF804E0DDE9022304B07047F0
S315080002042DE9F047089E04468846002B4BD18A42BE
S31508000214154667D9B2FA82F24AB1C2F1200701FA41
S3150800022402F320FA07F7954047EA030894404FEA91
S31508000234154E230CB8FBFEF71FFA85FC0EFB178830
S3150800024443EA084307FB0CF1994209D9EB1807F16D
S31508000254FF3080F01B81994240F21881023F2B44FB
S315080002645B1AA4B2B3FBFEF00EFB103344EA034454
S3150800027400FB0CFCA44509D92C1900F1FF3380F0C6
S315080002840781A44540F2048102382C4440EA074019
S31508000294A4EB0C0400271EB1D4400023C6E900438E
S315080002A43946BDE8F0878B4209D9002E00F0EB8069
S315080002B40027C6E9000138463946BDE8F087B3FA8F
S315080002C483F7002F47D18B4202D3824200F2FA8089
S315080002D4841A61EB030301209846002EE0D0C6E990
S315080002E40048DDE702B9FFDEB2FA82F2002A40F0DE
S315080002F48F80491B4FEA154E1FFA85F80127B1FB73
S31508000304FEFC230C0EFB1C1143EA014308FB0CF10B
S31508000314994207D9EB180CF1FF3002D2994200F240
S31508000324CD808446591AA3B2B1FBFEF00EFB101415
S3150800033443EA044408FB00F8A04507D92C1900F140
S31508000344FF3302D2A04500F2B6801846A4EB08048F
S3150800035440EA0C409FE7C7F1200CBB4022FA0CFE8A
S315080003644EEA030E01FA07F420FA0CF521FA0CF307
S315080003744FEA1E482543B3FBF8F92C0C08FB19333E
S315080003841FFA8EFA44EA034309FB0AF49C4202FA6A
S3150800039407F200FA07F10BD91EEB030309F1FF3044
S315080003A480F087809C4240F28480A9F10209734454
S315080003B41B1BADB2B3FBF8F008FB103345EA034444
S315080003C400FB0AFAA24508D91EEB040400F1FF3320
S315080003D46BD2A24569D90238744440EA0940A0FBA5
S315080003E40289A4EB0A044C45C2464B4654D351D061
S315080003F4002E69D0B1EB0A0564EB030404FA0CFC7D
S31508000404FD40FC404CEA0505C6E90054002747E7C9
S31508000414C2F1200320FA03F7954001FA02F021FA03
S3150800042403F34FEA154E3843010CB3FBFEF71FFAE4
S3150800043485F80EFB173341EA034107FB08F38B42A1
S3150800044404FA02F407D9691807F1FF3C2FD28B4244
S315080004542DD9023F2944CB1A81B2B3FBFEF00EFB19
S31508000464103341EA034100FB08F38B4207D96918A4
S3150800047400F1FF3C17D28B4215D902382944C91A10
S3150800048440EA07473BE73746304609E70746E7E6C3
S315080004941846FBE64145ABD2B8EB020A69EB0E02F5
S315080004A401381346A4E76046E9E7184695E7674620
S315080004B4D1E781467CE702382C4447E7ACF1020CC5
S315080004C42B442FE7384608E73746E9E6704700BF66
S315080004D480B500AF00F090F900F008F800F066F86F
S315080004E4014800F05AFFFEE72800002080B594B0C2
S315080004F400AF07F1200330220021184601F022FB41
S3150800050407F10C0300221A605A609A60DA601A61CD
S315080005140023BB60234B1B6C224A43F080531364AD
S31508000524204B1B6C03F08053BB60BB6800237B60C5
S315080005341D4B1B6823F440431B4A43F400431360D2
S31508000544194B1B6803F440437B607B6802233B62B8
S315080005540123FB6210233B630023BB6307F12003DB
S31508000564184600F0E7FA0346002B01D000F06EF8AF
S315080005740F23FB6000233B6100237B610023BB61DF
S315080005840023FB6107F10C030021184600F042FD25
S315080005940346002B01D000F059F800BF5037BD467A
S315080005A480BD00BF003802400070004080B586B0A8
S315080005B400AF07F1080300221A605A609A60DA60ED
S315080005C43B4600221A605A601E4B1F4A1A601D4B8E
S315080005D4A0225A601B4B00229A601A4B4FF47A7277
S315080005E4DA60184B00221A61164B00225A61154B21
S315080005F400229A61134800F0A5FE0346002B01D099
S3150800060400F024F84FF48053BB6007F10803194639
S315080006140C4800F0EEFF0346002B01D000F016F854
S3150800062400233B6000237B603B461946054801F0DE
S31508000634E3F90346002B01D000F008F800BF183789
S31508000644BD4680BD280000200000014080B400AFEC
S3150800065400BFBD465DF8047B7047000080B483B0D4
S3150800066400AF00237B60104B5B6C0F4A43F4804356
S3150800067453640D4B5B6C03F480437B607B680023F7
S315080006843B60094B1B6C084A43F080531364064BC2
S315080006941B6C03F080533B603B6800BF0C37BD46B8
S315080006A45DF8047B704700BF0038024080B584B00B
S315080006B400AF78607B681B680E4A934215D1002305
S315080006C4FB600D4B5B6C0C4A43F0010353640A4B05
S315080006D45B6C03F00103FB60FB6800220021192010
S315080006E400F0D7F9192000F0F0F900BF1037BD461D
S315080006F480BD00BF000001400038024080B400AF4E
S3150800070400BFBD465DF8047B704780B400AFFEE7C2
S3150800071480B400AFFEE780B400AFFEE780B400AF54
S31508000724FEE780B400AF00BFBD465DF8047B7047A2
S3150800073480B400AF00BFBD465DF8047B704780B443
S3150800074400AF00BFBD465DF8047B704780B500AFB7
S3150800075400F0A4F800BF80BD80B500AF01210448AD
S3150800076400F0CDF9034800F03CFE00BF80BD00BF91
S31508000774000402402800002080B400AF084BD3F8D8
S315080007848830074A43F47003C2F88830044B4FF0A4
S3150800079400629A6000BFBD465DF8047B704700BFDF
S315080007A400ED00E0DFF834D0002103E00C4B5B5881
S315080007B4435004310B480C4B42189A42F6D30B4A61
S315080007C402E0002342F8043B094B9A42F9D3FFF7A7
S315080007D4D3FF01F093F9FFF77BFE70470000012071
S315080007E4901B0008000000200C0000200C000020CC
S315080007F46C000020FEE7000080B500AF0E4B1B68B6
S315080008040D4A43F4007313600B4B1B680A4A43F4FE
S3150800081480631360084B1B68074A43F480731360AC
S31508000824032000F02BF9002000F008F8FFF716FF64
S315080008340023184680BD00BF003C024080B582B044
S3150800084400AF7860124B1A68124B1B7819464FF49E
S315080008547A73B3FBF1F3B2FBF3F3184600F043F9EA
S315080008640346002B01D001230EE07B680F2B0AD820
S31508000874002279684FF0FF3000F00BF9064A7B68CE
S315080008841360002300E0012318460837BD4680BDDF
S3150800089400000020080000200400002080B400AFF7
S315080008A4064B1B781A46064B1B681344044A136006
S315080008B400BFBD465DF8047B704700BF08000020F2
S315080008C46800002080B400AF034B1B681846BD4679
S315080008D45DF8047B704700BF6800002080B485B0CB
S315080008E400AF78607B6803F00703FB600C4BDB689A
S315080008F4BB60BA684FF6FF031340BB60FB681A0275
S31508000904BB68134343F0BF6343F40033BB60044A34
S31508000914BB68D36000BF1437BD465DF8047B7047D7
S3150800092400ED00E080B400AF044BDB681B0A03F05B
S3150800093407031846BD465DF8047B704700ED00E0E2
S3150800094480B483B000AF0346FB7197F90730002BD8
S315080009540BDBFB7903F01F02074997F907305B099C
S31508000964012000FA02F241F8232000BF0C37BD46E5
S315080009745DF8047B704700BF00E100E080B483B0F3
S3150800098400AF03463960FB7197F90730002B0ADB81
S315080009943B68DAB20C4997F907301201D2B20B4414
S315080009A483F800230AE03B68DAB20849FB7903F0C6
S315080009B40F03043B1201D2B20B441A7600BF0C375C
S315080009C4BD465DF8047B704700E100E000ED00E0F9
S315080009D480B489B000AFF860B9607A60FB6803F048
S315080009E40703FB61FB69C3F10703042B28BF042330
S315080009F4BB61FB690433062B02D9FB69033B00E0A0
S31508000A0400237B614FF0FF32BB6902FA03F3DA4332
S31508000A14BB681A407B699A404FF0FF317B6901FA3B
S31508000A2403F3D9437B680B40134318462437BD4662
S31508000A345DF8047B7047000080B582B000AF78602B
S31508000A447B68013BB3F1807F01D301230FE00A4A97
S31508000A547B68013B53600F214FF0FF30FFF78EFF91
S31508000A64054B00229A60044B07221A600023184695
S31508000A740837BD4680BD00BF10E000E080B582B0EF
S31508000A8400AF78607868FFF729FF00BF0837BD46CE
S31508000A9480BD80B586B000AF0346B9607A60FB7343
S31508000AA400237B61FFF73EFF78617A68B968786945
S31508000AB4FFF78EFF024697F90F3011461846FFF7DF
S31508000AC45DFF00BF1837BD4680BD80B582B000AF54
S31508000AD40346FB7197F907301846FFF731FF00BF45
S31508000AE40837BD4680BD80B582B000AF78607868A7
S31508000AF4FFF7A2FF034618460837BD4680BD80B4F3
S31508000B0483B000AF78600B467B807B685A697B8824
S31508000B141A407B889A4204D17B881A047B689A61B6
S31508000B2402E07A887B689A6100BF0C37BD465DF897
S31508000B34047B704780B586B000AF78607B68002B6D
S31508000B4401D101235BE27B681B6803F00103002BD8
S31508000B5475D0A34B9B6803F00C03042B0CD0A04B55
S31508000B649B6803F00C03082B12D19D4B5B6803F4B6
S31508000B748003B3F5800F0BD1994B1B6803F400333C
S31508000B84002B5BD07B685B68002B57D1012336E2C8
S31508000B947B685B68B3F5803F06D1914B1B68904A26
S31508000BA443F4803313601DE07B685B68B3F5A02FBC
S31508000BB40CD18B4B1B688A4A43F480231360884BF9
S31508000BC41B68874A43F4803313600BE0844B1B6825
S31508000BD4834A23F480331360814B1B68804A23F4C9
S31508000BE4802313607B685B68002B13D0FFF76AFECB
S31508000BF4386108E0FFF766FE02463B69D31A642BA0
S31508000C0401D90323FBE1764B1B6803F40033002B5D
S31508000C14F0D014E0FFF756FE386108E0FFF752FEFD
S31508000C2402463B69D31A642B01D90323E7E16C4BCB
S31508000C341B6803F40033002BF0D100E000BF7B6887
S31508000C441B6803F00203002B63D0654B9B6803F013
S31508000C540C03002B0BD0624B9B6803F00C03082B88
S31508000C641CD15F4B5B6803F48003002B16D15C4BE5
S31508000C741B6803F00203002B05D07B68DB68012B95
S31508000C8401D00123BBE1564B1B6823F0F8027B68AD
S31508000C941B69DB00524913430B603AE07B68DB6847
S31508000CA4002B20D04F4B01221A60FFF70BFE386148
S31508000CB408E0FFF707FE02463B69D31A022B01D95F
S31508000CC403239CE1464B1B6803F00203002BF0D078
S31508000CD4434B1B6823F0F8027B681B69DB00404919
S31508000CE413430B6015E03F4B00221A60FFF7EAFD39
S31508000CF4386108E0FFF7E6FD02463B69D31A022B82
S31508000D0401D903237BE1364B1B6803F00203002B4E
S31508000D14F0D17B681B6803F00803002B30D07B688E
S31508000D245B69002B16D0304B01221A60FFF7CAFD07
S31508000D34386108E0FFF7C6FD02463B69D31A022B61
S31508000D4401D903235BE1264B5B6F03F00203002BF7
S31508000D54F0D015E0244B00221A60FFF7B3FD386182
S31508000D6408E0FFF7AFFD02463B69D31A022B01D907
S31508000D74032344E11A4B5B6F03F00203002BF0D103
S31508000D847B681B6803F00403002B00F0A080002393
S31508000D94FB75134B1B6C03F08053002B0FD10023F8
S31508000DA4BB600F4B1B6C0E4A43F0805313640C4B09
S31508000DB41B6C03F08053BB60BB680123FB750B4BAC
S31508000DC41B6803F48073002B21D1084B1B68074A60
S31508000DD443F480731360FFF775FD386111E000BFB3
S31508000DE40038024000004742800E47420070004027
S31508000DF4FFF768FD02463B69D31A022B01D9032380
S31508000E04FDE0814B1B6803F48073002BF0D07B68EC
S31508000E149B68012B06D17D4B1B6F7C4A43F001036B
S31508000E2413671CE07B689B68052B0CD1774B1B6FFB
S31508000E34764A43F004031367744B1B6F734A43F0F3
S31508000E44010313670BE0714B1B6F704A23F0010310
S31508000E5413676E4B1B6F6D4A23F0040313677B6895
S31508000E649B68002B15D0FFF72DFD38610AE0FFF7C4
S31508000E7429FD02463B69D31A41F28832934201D9C5
S31508000E840323BCE0614B1B6F03F00203002BEED077
S31508000E9414E0FFF717FD38610AE0FFF713FD024671
S31508000EA43B69D31A41F28832934201D90323A6E057
S31508000EB4564B1B6F03F00203002BEED1FB7D012B6F
S31508000EC405D1524B1B6C514A23F0805313647B683B
S31508000ED49B69002B00F092804C4B9B6803F00C0333
S31508000EE4082B5CD07B689B69022B41D1484B0022B6
S31508000EF41A60FFF7E7FC386108E0FFF7E3FC0246EF
S31508000F043B69D31A022B01D9032378E03F4B1B68AC
S31508000F1403F00073002BF0D17B68DA697B681B6ADF
S31508000F241A437B685B6A9B011A437B689B6A5B0866
S31508000F34013B1B041A437B68DB6A1B0633491343CC
S31508000F444B60334B01221A60FFF7BCFC386108E09A
S31508000F54FFF7B8FC02463B69D31A022B01D90323CF
S31508000F644DE02A4B1B6803F00073002BF0D045E0D4
S31508000F74274B00221A60FFF7A5FC386108E0FFF743
S31508000F84A1FC02463B69D31A022B01D9032336E096
S31508000F941E4B1B6803F00073002BF0D12EE07B6810
S31508000FA49B69012B01D1012329E0184B5B68FB607F
S31508000FB4FB6803F480027B68DB699A421CD1FB68F0
S31508000FC403F03F027B681B6A9A4215D1FA6847F612
S31508000FD4C07313407A68526A93420DD1FB6803F4CE
S31508000FE440327B689B6A9A4206D1FB6803F07062BA
S31508000FF47B68DB6A9A4201D0012300E00023184685
S315080010041837BD4680BD00BF007000400038024056
S315080010146000474280B584B000AF786039607B6869
S31508001024002B01D10123CCE0684B1B6803F00F03A6
S315080010343A689A420CD9654B3A68D2B21A70634B2D
S315080010441B6803F00F033A689A4201D00123B8E0FB
S315080010547B681B6803F00203002B20D07B681B689F
S3150800106403F00403002B05D0594B9B68584A43F4F4
S31508001074E05393607B681B6803F00803002B05D0D4
S31508001084534B9B68524A43F460439360504B9B68A6
S3150800109423F0F0027B689B684D4913438B607B6899
S315080010A41B6803F00103002B44D07B685B68012BA3
S315080010B407D1474B1B6803F40033002B19D10123CE
S315080010C47FE07B685B68022B03D07B685B68032B35
S315080010D407D13F4B1B6803F00073002B09D101238A
S315080010E46FE03B4B1B6803F00203002B01D101237D
S315080010F467E0374B9B6823F003027B685B683449D7
S3150800110413438B60FFF7DEFBF8600AE0FFF7DAFBB0
S315080011140246FB68D31A41F28832934201D9032363
S315080011244FE02B4B9B6803F00C027B685B689B00C3
S315080011349A42EBD1254B1B6803F00F033A689A428F
S315080011440CD2224B3A68D2B21A70204B1B6803F0B1
S315080011540F033A689A4201D0012332E07B681B6880
S3150800116403F00403002B08D0194B9B6823F4E052C0
S315080011747B68DB68164913438B607B681B6803F03E
S315080011840803002B09D0124B9B6823F460427B6842
S315080011941B69DB000E4913438B6000F021F80146F6
S315080011A40B4B9B681B0903F00F030A4AD35C21FA0D
S315080011B403F3094A1360094B1B681846FFF73EFBFD
S315080011C4002318461037BD4680BD00BF003C0240C8
S315080011D400380240701B00080000002004000020AC
S315080011E4F0B585B000AF00237B600023FB600023C5
S315080011F43B600023BB60504B9B6803F00C03042B35
S3150800120407D0082B08D0002B40F08D804B4BBB60D1
S315080012148CE04B4BBB6089E0474B5B6803F03F03AC
S315080012247B60454B5B6803F48003002B23D0424B59
S315080012345B689B094FF0000440F2FF114FF000026F
S3150800124403EA010504EA02063D4A02FB06F1002206
S3150800125402FB05F20A443A49A5FB0101531819464B
S315080012647B684FF000041A462346FEF7B1FF03468F
S315080012740C46FB6049E0304B5B689B094FF0000461
S3150800128440F2FF114FF0000203EA010504EA0206E0
S31508001294294632464FF000034FF00004540144EA4D
S315080012A4D1644B0119462246491B62EB06024FF0EC
S315080012B400034FF00004940144EA91648B015B1A1D
S315080012C464EB02044FF000014FF00002E20042EA28
S315080012D45372D9000B4614465B1944EB06044FF0C7
S315080012E400014FF00002A20242EA935299020B4609
S315080012F41446184621467B684FF000041A462346CE
S31508001304FEF766FF03460C46FB600B4B5B681B0C3B
S3150800131403F0030301335B003B60FA683B68B2FBE6
S31508001324F3F3BB6002E0054BBB6000BFBB6818461D
S315080013341437BD46F0BD00BF003802400024F4004F
S3150800134440787D0180B582B000AF78607B68002B59
S3150800135401D101231DE07B6893F83D30DBB2002BF5
S3150800136406D17B68002283F83C207868FFF79EF94B
S315080013747B68022283F83D207B681A687B680433FD
S315080013841946104600F01EFA7B68012283F83D20B0
S31508001394002318460837BD4680BD80B485B000AF23
S315080013A478607B681B68DA687B681B6842F0010210
S315080013B4DA607B681B689B6803F00703FB60FB68BD
S315080013C4062B07D07B681B681A687B681B6842F083
S315080013D401021A60002318461437BD465DF8047BDB
S315080013E4704780B582B000AF78607B681B681B695C
S315080013F403F00203022B22D17B681B68DB6803F027
S315080014040203022B1BD17B681B686FF002021A6168
S315080014147B6801221A777B681B689B6903F00303C0
S31508001424002B03D0786800F0AFF905E0786800F07F
S31508001434A1F9786800F0B2F97B6800221A777B680C
S315080014441B681B6903F00403042B22D17B681B6801
S31508001454DB6803F00403042B1BD17B681B686FF05D
S3150800146404021A617B6802221A777B681B689B69E7
S3150800147403F44073002B03D0786800F085F905E07F
S31508001484786800F077F9786800F088F97B680022B4
S315080014941A777B681B681B6903F00803082B22D19B
S315080014A47B681B68DB6803F00803082B1BD17B6881
S315080014B41B686FF008021A617B6804221A777B6836
S315080014C41B68DB6903F00303002B03D0786800F07C
S315080014D45BF905E0786800F04DF9786800F05EF984
S315080014E47B6800221A777B681B681B6903F0100364
S315080014F4102B22D17B681B68DB6803F01003102BC2
S315080015041BD17B681B686FF010021A617B6808227E
S315080015141A777B681B68DB6903F44073002B03D0D6
S31508001524786800F031F905E0786800F023F97868FE
S3150800153400F034F97B6800221A777B681B681B69FC
S3150800154403F00103012B0ED17B681B68DB6803F0EB
S315080015540103012B07D17B681B686FF001021A612E
S31508001564786800F0FDF87B681B681B6903F0800344
S31508001574802B0ED17B681B68DB6803F08003802B05
S3150800158407D17B681B686FF080021A61786800F0DF
S31508001594ABFA7B681B681B6903F04003402B0ED12A
S315080015A47B681B68DB6803F04003402B07D17B6824
S315080015B41B686FF040021A61786800F0F9F87B68D6
S315080015C41B681B6903F02003202B0ED17B681B685C
S315080015D4DB6803F02003202B07D17B681B686FF0B8
S315080015E420021A61786800F075FA00BF0837BD460C
S315080015F480BD80B584B000AF786039607B6893F8A5
S315080016043C30012B01D10223A6E07B68012283F832
S315080016143C207B68022283F83D207B681B689B6814
S31508001624FB60FB6823F07703FB60FB6823F47F43C6
S31508001634FB607B681B68FA689A603B681B68402BEA
S3150800164467D0402B0BD8102B73D0102B02D8002B45
S315080016546FD078E0202B6CD0302B6AD073E0702BD7
S315080016640DD0702B04D8502B33D0602B41D06AE0B0
S31508001674B3F5805F66D0B3F5005F17D063E07B6887
S3150800168418683B6899683B685A683B68DB6800F0E9
S3150800169493F97B681B689B68FB60FB6843F07703D8
S315080016A4FB607B681B68FA689A604CE07B6818687C
S315080016B43B6899683B685A683B68DB6800F07CF9C4
S315080016C47B681B689A687B681B6842F480429A6048
S315080016D439E07B6818683B6859683B68DB681A46D2
S315080016E400F0F0F87B681B685021184600F049F9A9
S315080016F429E07B6818683B6859683B68DB681A46C2
S3150800170400F00FF97B681B686021184600F039F968
S3150800171419E07B6818683B6859683B68DB681A46B1
S3150800172400F0D0F87B681B684021184600F029F9B8
S3150800173409E07B681A683B681B681946104600F07E
S3150800174420F900E000BF7B68012283F83D207B680E
S31508001754002283F83C20002318461037BD4680BD76
S3150800176480B483B000AF786000BF0C37BD465DF81F
S31508001774047B704780B483B000AF786000BF0C3731
S31508001784BD465DF8047B704780B483B000AF7860CB
S3150800179400BF0C37BD465DF8047B704780B483B040
S315080017A400AF786000BF0C37BD465DF8047B704710
S315080017B480B483B000AF786000BF0C37BD465DF8CF
S315080017C4047B704780B485B000AF786039607B6865
S315080017D41B68FB607B68344A93420FD07B68B3F17D
S315080017E4804F0BD07B68314A934207D07B68304AD6
S315080017F4934203D07B682F4A934208D1FB6823F0AF
S315080018047003FB603B685B68FA681343FB607B689C
S31508001814254A93421BD07B68B3F1804F17D07B6867
S31508001824224A934213D07B68214A93420FD07B689D
S31508001834204A93420BD07B681F4A934207D07B68A1
S315080018441E4A934203D07B681D4A934208D1FB681B
S3150800185423F44073FB603B68DB68FA681343FB6058
S31508001864FB6823F080023B685B691343FB607B6873
S31508001874FA681A603B689A687B68DA623B681A6891
S315080018847B689A627B68084A934203D13B681A6963
S315080018947B681A637B6801225A6100BF1437BD4608
S315080018A45DF8047B704700BF000001400004004057
S315080018B400080040000C004000400140004401407C
S315080018C40048014080B487B000AFF860B9607A6018
S315080018D4FB681B6A7B61FB681B6A23F00102FB68D1
S315080018E41A62FB689B693B613B6923F0F0033B6121
S315080018F47B681B013A6913433B617B6923F00A033E
S315080019047B617A69BB6813437B61FB683A699A61B0
S31508001914FB687A691A6200BF1C37BD465DF8047B0A
S31508001924704780B487B000AFF860B9607A60FB6826
S315080019341B6A23F01002FB681A62FB689B697B61C9
S31508001944FB681B6A3B617B6923F470437B617B6894
S315080019541B037A6913437B613B6923F0A0033B614C
S31508001964BB681B013A6913433B61FB687A699A6150
S31508001974FB683A691A6200BF1C37BD465DF8047BEA
S31508001984704780B485B000AF786039607B689B681F
S31508001994FB60FB6823F07003FB603A68FB6813433B
S315080019A443F00703FB607B68FA689A6000BF143744
S315080019B4BD465DF8047B704780B487B000AFF86015
S315080019C4B9607A603B60FB689B687B617B6923F43A
S315080019D47F437B613B681A027B681A43BB681343DF
S315080019E47A6913437B61FB687A699A6000BF1C377E
S315080019F4BD465DF8047B704780B485B000AF786057
S31508001A0439607B6893F83C30012B01D1022350E0FE
S31508001A147B68012283F83C207B68022283F83D20F8
S31508001A247B681B685B68FB607B681B689B68BB609C
S31508001A34FB6823F07003FB603B681B68FA68134372
S31508001A44FB607B681B68FA685A607B681B681C4ADB
S31508001A54934218D07B681B68B3F1804F13D07B6818
S31508001A641B68184A93420ED07B681B68164A934231
S31508001A7409D07B681B68154A934204D07B681B68A7
S31508001A84134A93420CD1BB6823F08003BB603B68BE
S31508001A945B68BA681343BB607B681B68BA689A605C
S31508001AA47B68012283F83D207B68002283F83C206A
S31508001AB4002318461437BD465DF8047B704700BFFB
S31508001AC4000001400004004000080040000C0040EB
S31508001AD40040014080B483B000AF786000BF0C3783
S31508001AE4BD465DF8047B704780B483B000AF786068
S31508001AF400BF0C37BD465DF8047B704770B50D4EC4
S31508001B040D4CA41BA4100025A54209D10B4E0C4C60
S31508001B1400F020F8A41BA4100025A54205D170BD29
S31508001B2456F8253098470135EEE756F82530984794
S31508001B340135F2E7881B0008881B0008881B000883
S31508001B448C1B000802440346934200D1704703F8ED
S31508001B54011BF9E7F8B500BFF8BC08BC9E467047F8
S31108001B64F8B500BFF8BC08BC9E467047E8
S31508001B70000000000000000001020304060708092F
S30D08001B8084E6FF7F0100000066
S30908001B88B901000889
S30908001B8C95010008A9
S31108001B900024F400100000000100000012
S705080007A942
