:020000040800F2
:1000000000000120E50A0008050A0008130A00089C
:10001000190A00081F0A0008250A0008000000004D
:100020000000000000000000000000002B0A000893
:10003000390A000800000000470A0008550A0008B5
:10004000350B0008350B0008350B0008350B000890
:10005000350B0008350B0008350B0008350B000880
:10006000350B0008350B0008350B0008350B000870
:10007000350B0008350B0008350B0008350B000860
:10008000350B0008350B0008350B00080000000098
:10009000000000000000000000000000350B000818
:1000A000350B0008350B0008350B0008350B000830
:1000B000350B0008350B0008350B0008350B000820
:1000C000350B0008350B0008350B0008350B000810
:1000D000350B0008350B0008350B00080000000048
:1000E000350B0008350B0008350B00080000000038
:1000F000000000000000000000000000350B0008B8
:1001000000000000350B0008350B0008350B000817
:1001100000000000000000000000000000000000DF
:10012000350B0008350B0008350B0008350B0008AF
:10013000350B000800000000000000000000000077
:10014000000000000000000000000000350B000867
:10015000350B0008350B0008350B0008350B00087F
:10016000350B0008350B00080000000000000000FF
:10017000000000000000000000000000000000007F
:1001800000000000350B0008000000000000000027
:04019000350B000823
:1001A00010B5054C237833B9044B13B10448AFF3B1
:1001B00000800123237010BD7000002000000000AB
:1001C000D832000808B5034B1BB103490348AFF30D
:1001D000008008BD0000000074000020D832000834
:1001E000034613F8012B002AFBD1181A0138704777
:1001F00001F0FF01102A2BDB10F0070F08D010F8D8
:10020000013B013A8B422DD010F0070F42B3F6D1DB
:10021000F0B441EA012141EA014122F007047FF0F4
:1002200000070023F0E80256083C85EA010586EA4B
:10023000010685FA47F5A3FA87F586FA47F6A5FA87
:1002400087F68EB9EED1F0BC01F0FF0102F0070293
:1002500032B110F8013B013A83EA010313B1F8D13E
:100260000020704701387047002D06BF354603381F
:10027000073815F0010F07D1013015F4807F02BF58
:10028000013015F4C03F0130F0BC0138704700BFA9
:1002900053B94AB9002908BF00281CBF4FF0FF31ED
:1002A0004FF0FF3000F072B9ADF1080C6DE904CEEB
:1002B00000F006F8DDF804E0DDE9022304B0704741
:1002C0002DE9F047089E04468846002B4BD18A4210
:1002D000154667D9B2FA82F24AB1C2F1200701FA93
:1002E00002F320FA07F7954047EA030894404FEAE3
:1002F000154E230CB8FBFEF71FFA85FC0EFB178882
:1003000043EA084307FB0CF1994209D9EB1807F1BE
:10031000FF3080F01B81994240F21881023F2B444C
:100320005B1AA4B2B3FBFEF00EFB103344EA0344A5
:1003300000FB0CFCA44509D92C1900F1FF3380F017
:100340000781A44540F2048102382C4440EA07406A
:10035000A4EB0C0400271EB1D4400023C6E90043DF
:100360003946BDE8F0878B4209D9002E00F0EB80BA
:100370000027C6E9000138463946BDE8F087B3FAE0
:1003800083F7002F47D18B4202D3824200F2FA80DA
:10039000841A61EB030301209846002EE0D0C6E9E1
:1003A0000048DDE702B9FFDEB2FA82F2002A40F02F
:1003B0008F80491B4FEA154E1FFA85F80127B1FBC4
:1003C000FEFC230C0EFB1C1143EA014308FB0CF15D
:1003D000994207D9EB180CF1FF3002D2994200F292
:1003E000CD808446591AA3B2B1FBFEF00EFB101467
:1003F00043EA044408FB00F8A04507D92C1900F192
:10040000FF3302D2A04500F2B6801846A4EB0804E0
:1004100040EA0C409FE7C7F1200CBB4022FA0CFEDB
:100420004EEA030E01FA07F420FA0CF521FA0CF358
:100430004FEA1E482543B3FBF8F92C0C08FB19338F
:100440001FFA8EFA44EA034309FB0AF49C4202FABB
:1004500007F200FA07F10BD91EEB030309F1FF3095
:1004600080F087809C4240F28480A9F102097344A5
:100470001B1BADB2B3FBF8F008FB103345EA034495
:1004800000FB0AFAA24508D91EEB040400F1FF3371
:100490006BD2A24569D90238744440EA0940A0FBF6
:1004A0000289A4EB0A044C45C2464B4654D351D0B2
:1004B000002E69D0B1EB0A0564EB030404FA0CFCCE
:1004C000FD40FC404CEA0505C6E90054002747E71B
:1004D000C2F1200320FA03F7954001FA02F021FA55
:1004E00003F34FEA154E3843010CB3FBFEF71FFA36
:1004F00085F80EFB173341EA034107FB08F38B42F3
:1005000004FA02F407D9691807F1FF3C2FD28B4295
:100510002DD9023F2944CB1A81B2B3FBFEF00EFB6A
:10052000103341EA034100FB08F38B4207D96918F5
:1005300000F1FF3C17D28B4215D902382944C91A61
:1005400040EA07473BE73746304609E70746E7E614
:100550001846FBE64145ABD2B8EB020A69EB0E0246
:1005600001381346A4E76046E9E7184695E7674671
:10057000D1E781467CE702382C4447E7ACF1020C16
:100580002B442FE7384608E73746E9E6704700BFB7
:1005900080B59AB000AF00237B6600F0CDFA00F082
:1005A00057F800F031F900F0B3F800F003F92348F0
:1005B00000F09AFB4FF0FF31204800F03BFC1F4851
:1005C00000F0BCFC7866012202211D4801F04AF9C6
:1005D000012201211A4801F045F97B6E40F699127B
:1005E000934205D800220221154801F03BF904E0AE
:1005F00000220121124801F035F97B6E642202FBD2
:1006000003F2104BA3FB0213D21A52081344DB0A65
:100610001A463B460C49184602F058FA3B46184623
:10062000FFF7DEFD03469AB239466423074801F01E
:10063000BCFD642000F0F2FAB9E700BF980000208A
:100640000004024001011000F0320008E000002028
:1006500080B594B000AF07F1200330220021184686
:1006600002F02CFA07F10C0300221A605A609A601B
:10067000DA601A610023BB60234B1B6C224A43F0F3
:1006800080531364204B1B6C03F08053BB60BB682A
:1006900000237B601D4B1B6823F440431B4A43F43B
:1006A00000431360194B1B6803F440437B607B6875
:1006B00002233B620123FB6210233B630023BB63E5
:1006C00007F12003184601F0E7F80346002B01D09C
:1006D00000F0DCF80F23FB6000233B6100237B610B
:1006E0000023BB610023FB6107F10C0300211846C6
:1006F00001F042FB0346002B01D000F0C7F800BF19
:100700005037BD4680BD00BF003802400070004039
:1007100080B584B000AF3B4600221A605A609A60F0
:10072000DA60214B214A1A601F4B00225A601E4B8F
:1007300000229A601C4B00221A611B4B00221A7681
:10074000194B002283F82020174B0022DA62164B47
:10075000174A9A62144B0022DA60134B0122DA61C5
:10076000114B002283F830200F4B01225A610E48B2
:1007700000F076FA0346002B01D000F087F803233F
:100780003B6001237B600023BB603B461946064863
:1007900000F0E2FB0346002B01D000F077F800BF29
:1007A0001037BD4680BD00BF9800002000200140EA
:1007B0000100000F80B500AF114B124A1A60104BB8
:1007C0004FF4E1325A600E4B00229A600C4B00222B
:1007D000DA600B4B00221A61094B0C225A61084B5C
:1007E00000229A61064B0022DA61054801F090FC74
:1007F0000346002B01D000F049F800BF80BD00BFC8
:10080000E00000200014014080B588B000AF07F17F
:100810000C0300221A605A609A60DA601A610023A1
:10082000BB60184B1B6B174A43F001031363154B56
:100830001B6B03F00103BB60BB6800237B60114BA3
:100840001B6B104A43F0020313630E4B1B6B03F048
:1008500002037B607B68002203210B4801F002F851
:100860000323FB6001233B6101237B610023BB6108
:1008700007F10C031946044800F072FE00BF203750
:10088000BD4680BD003802400004024080B400AF85
:1008900000BFBD465DF8047B7047000080B483B0A4
:1008A00000AF00237B60104B5B6C0F4A43F4804326
:1008B00053640D4B5B6C03F480437B607B680023C7
:1008C0003B60094B1B6C084A43F080531364064B92
:1008D0001B6C03F080533B603B6800BF0C37BD4688
:1008E0005DF8047B704700BF0038024080B58AB0D5
:1008F00000AF786007F1140300221A605A609A6012
:10090000DA601A617B681B68174A934227D100237B
:100910003B61164B5B6C154A43F480735364134B75
:100920005B6C03F480733B613B690023FB600F4BFE
:100930001B6B0E4A43F0010313630C4B1B6B03F05C
:100940000103FB60FB6808237B610323BB61002379
:10095000FB6107F114031946054800F001FE00BFD2
:100960002837BD4680BD00BF00200140003802404E
:100970000000024080B58AB000AF786007F1140330
:1009800000221A605A609A60DA601A617B681B68FC
:10099000194A93422CD100233B61184B5B6C174AD8
:1009A00043F020035364154B5B6C03F020033B6161
:1009B0003B690023FB60114B1B6B104A43F00103A2
:1009C00013630E4B1B6B03F00103FB60FB684FF4DA
:1009D000C0537B610223BB610023FB6103233B62A5
:1009E00008237B6207F114031946054800F0B8FD9F
:1009F00000BF2837BD4680BD0014014000380240CA
:100A00000000024080B400AF00BFBD465DF8047B2B
:100A1000704780B400AFFEE780B400AFFEE780B45B
:100A200000AFFEE780B400AFFEE780B400AF00BFC8
:100A3000BD465DF8047B704780B400AF00BFBD4683
:100A40005DF8047B704780B400AF00BFBD465DF821
:100A5000047B704780B500AF00F0C0F800BF80BDD8
:100A600080B584B000AF7860114B1B68002B02D1B9
:100A70000F4B104A1A600E4B1B68FB600C4B1A6838
:100A80007B6813446A46934207D901F0EDFF0246A2
:100A90000C2313604FF0FF3306E0054B1A687B68A8
:100AA0001344034A1360FB6818461037BD4680BDE7
:100AB0008C0000202801002080B400AF084BD3F840
:100AC0008830074A43F47003C2F88830044B4FF073
:100AD00000629A6000BFBD465DF8047B704700BFAE
:100AE00000ED00E0DFF834D0002103E00C4B5B5850
:100AF000435004310B480C4B42189A42F6D30B4A30
:100B000002E0002342F8043B094B9A42F9D3FFF775
:100B1000D3FF01F0AFFFFFF73BFD7047000001205E
:100B200060330008000000207000002070000020EA
:100B300028010020FEE7000080B500AF0E4B1B68C7
:100B40000D4A43F4007313600B4B1B680A4A43F4CD
:100B500080631360084B1B68074A43F4807313607B
:100B6000032000F0C9FC002000F008F8FFF796FE13
:100B70000023184680BD00BF003C024080B582B013
:100B800000AF7860124B1A68124B1B7819464FF46D
:100B90007A73B3FBF1F3B2FBF3F3184600F0D3FC26
:100BA0000346002B01D001230EE07B680F2B0AD8EF
:100BB000002279684FF0FF3000F0A9FC064A7B68FC
:100BC0001360002300E0012318460837BD4680BDAE
:100BD00000000020080000200400002080B400AFC6
:100BE000064B1B781A46064B1B681344044A1360D5
:100BF00000BFBD465DF8047B704700BF08000020C1
:100C00002001002080B400AF034B1B681846BD468E
:100C10005DF8047B704700BF2001002080B584B0E0
:100C200000AF7860FFF7EEFFB8607B68FB60FB68A1
:100C3000B3F1FF3F05D0094B1B781A46FB681344FC
:100C4000FB6000BFFFF7DEFF0246BB68D31AFA68FD
:100C50009A42F7D800BF1037BD4680BD080000207B
:100C600080B584B000AF78600023FB737B68002BF5
:100C700001D1012333E07B681B6C002B09D178681C
:100C8000FFF734FE7B6800225A647B68002283F8F9
:100C90003C207B681B6C03F01003002B18D17B6891
:100CA0001B6C23F4885323F0020343F002027B6899
:100CB0001A64786800F072FA7B6800225A647B68D4
:100CC0001B6C23F0030343F001027B681A6401E00C
:100CD0000123FB737B68002283F83C20FB7B1846D2
:100CE0001037BD4680BD000080B485B000AF78608D
:100CF0000023BB607B6893F83C30012B01D10223B9
:100D00008AE07B68012283F83C207B681B689B6833
:100D100003F00103012B18D07B681B689A687B687D
:100D20001B6842F001029A603E4B1B683E4AA2FBE0
:100D300003239A0C13465B001344BB6002E0BB68BC
:100D4000013BBB60BB68002BF9D17B681B689B68CB
:100D500003F00103012B5ED17B681B6C23F4E0637D
:100D600023F0010343F480727B681A647B681B687C
:100D70005B6803F48063002B07D07B681B6C23F453
:100D8000405343F480527B681A647B681B6C03F405
:100D90008053B3F5805F06D17B685B6C23F006025D
:100DA0007B685A6402E07B6800225A647B680022F8
:100DB00083F83C201D4BFB607B681B686FF02202B0
:100DC0001A60FB685B6803F01F03002B0FD17B6880
:100DD0001B689B6803F04053002B1CD17B681B6889
:100DE0009A687B681B6842F080429A6013E07B68D7
:100DF0001B680F4A93420ED17B681B689B6803F007
:100E00004053002B07D17B681B689A687B681B687E
:100E100042F080429A60002318461437BD465DF8C0
:100E2000047B70470000002083DE1B430023014049
:100E30000020014080B584B000AF786039600023A5
:100E4000FB607B681B689B6803F48063B3F5806F6D
:100E500013D17B681B689B6803F48073B3F5807FB4
:100E60000BD17B681B6C43F020027B681A647B68A3
:100E7000002283F83C2001235CE0FFF7C3FEF8600A
:100E80001AE03B68B3F1FF3F16D03B68002B07D058
:100E9000FFF7B8FE0246FB68D31A3A689A420BD2B3
:100EA0007B681B6C43F004027B681A647B68002239
:100EB00083F83C2003233DE07B681B681B6803F03C
:100EC0000203022BDDD17B681B686FF012021A60EF
:100ED0007B681B6C43F400727B681A647B681B6838
:100EE0009B6803F04053002B23D17B681B7E002BB3
:100EF0001FD17B681B68DB6A03F47003002B06D0EC
:100F00007B681B689B6803F48063002B11D17B68AE
:100F10001B6C23F480727B681A647B681B6C03F47F
:100F20008053002B05D17B681B6C43F001027B686A
:100F30001A64002318461037BD4680BD80B483B0C4
:100F400000AF78607B681B68DB6C18460C37BD46C9
:100F50005DF8047B7047000080B485B000AF786016
:100F600039600023BB607B6893F83C30012B01D1D2
:100F7000022305E17B68012283F83C203B681B6863
:100F8000092B25D97B681B68D9683B681B689BB215
:100F90001A4613465B0013441E3B072202FA03F372
:100FA000DA437B681B680A40DA607B681B68D96893
:100FB0003B689A683B681B689BB2184603465B0017
:100FC00003441E3B9A407B681B680A43DA6022E0B8
:100FD0007B681B6819693B681B689BB21A461346FD
:100FE0005B001344072202FA03F3DA437B681B68B1
:100FF0000A401A617B681B6819693B689A683B68FC
:101000001B689BB2184603465B0003449A407B680A
:101010001B680A431A613B685B68062B24D87B680F
:101020001B68596B3B685A6813469B001344053B89
:101030001F2202FA03F3DA437B681B680A405A63F3
:101040007B681B68596B3B681B689BB218463B6802
:101050005A6813469B001344053B00FA03F27B6871
:101060001B680A435A634CE03B685B680C2B24D82E
:101070007B681B68196B3B685A6813469B001344D6
:10108000233B1F2202FA03F3DA437B681B680A4002
:101090001A637B681B68196B3B681B689BB2184618
:1010A0003B685A6813469B001344233B00FA03F243
:1010B0007B681B680A431A6323E07B681B68D96A54
:1010C0003B685A6813469B001344413B1F2202FAB7
:1010D00003F3DA437B681B680A40DA627B681B68AB
:1010E000D96A3B681B689BB218463B685A6813462E
:1010F0009B001344413B00FA03F27B681B680A43E0
:10110000DA62224BFB607B681B68214A934209D15B
:101110003B681B68122B05D1FB685B6843F48002B7
:10112000FB685A607B681B68194A934223D13B686D
:101130001B68102B03D03B681B68112B1BD1FB686D
:101140005B6843F40002FB685A603B681B68102B25
:1011500011D1104B1B68104AA2FB03239A0C1346B3
:101160009B0013445B00BB6002E0BB68013BBB60BB
:10117000BB68002BF9D17B68002283F83C20002358
:1011800018461437BD465DF8047B704700230140C4
:10119000002001400000002083DE1B4380B485B0A6
:1011A00000AF7860794BFB60FB685B6823F44032EA
:1011B000FB685A60FB685A687B685B681A43FB6887
:1011C0005A607B681B685A687B681B6822F48072CF
:1011D0005A607B681B6859687B681B691A027B68C8
:1011E0001B680A435A607B681B685A687B681B68E7
:1011F00022F040725A607B681B6859687B689A6865
:101200007B681B680A435A607B681B689A687B6826
:101210001B6822F400629A607B681B6899687B688F
:10122000DA687B681B680A439A607B689B6A584A45
:10123000934222D07B681B689A687B681B6822F007
:1012400070629A607B681B6899687B689A6A7B68A1
:101250001B680A439A607B681B689A687B681B68F6
:1012600022F040529A607B681B6899687B68DA6A52
:101270007B681B680A439A600FE07B681B689A686A
:101280007B681B6822F070629A607B681B689A68B2
:101290007B681B6822F040529A607B681B689A68E2
:1012A0007B681B6822F002029A607B681B68996861
:1012B0007B681B7E5A007B681B680A439A607B68C8
:1012C00093F82030002B1BD07B681B685A687B6822
:1012D0001B6842F400625A607B681B685A687B682E
:1012E0001B6822F460425A607B681B6859687B68FF
:1012F0005B6A013B5A037B681B680A435A6007E03C
:101300007B681B685A687B681B6822F400625A601D
:101310007B681B68DA6A7B681B6822F47002DA62F9
:101320007B681B68D96A7B68DB69013B1A057B68AF
:101330001B680A43DA627B681B689A687B681B68D3
:1013400022F400729A607B681B6899687B6893F846
:1013500030305A027B681B680A439A607B681B68BE
:101360009A687B681B6822F480629A607B681B68BD
:1013700099687B685B699A027B681B680A439A607C
:1013800000BF1437BD465DF8047B70470023014061
:101390000100000F80B485B000AF78607B6803F077
:1013A0000703FB600C4BDB68BB60BA684FF6FF03BA
:1013B0001340BB60FB681A02BB68134343F0BF6372
:1013C00043F40033BB60044ABB68D36000BF1437EA
:1013D000BD465DF8047B704700ED00E080B400AFCF
:1013E000044BDB681B0A03F007031846BD465DF893
:1013F000047B704700ED00E080B483B000AF03468B
:101400003960FB7197F90730002B0ADB3B68DAB2D1
:101410000C4997F907301201D2B20B4483F800232C
:101420000AE03B68DAB20849FB7903F00F03043B9A
:101430001201D2B20B441A7600BF0C37BD465DF8DC
:10144000047B704700E100E000ED00E080B489B06B
:1014500000AFF860B9607A60FB6803F00703FB61D6
:10146000FB69C3F10703042B28BF0423BB61FB699D
:101470000433062B02D9FB69033B00E000237B61A8
:101480004FF0FF32BB6902FA03F3DA43BB681A403C
:101490007B699A404FF0FF317B6901FA03F3D9432E
:1014A0007B680B40134318462437BD465DF8047B28
:1014B0007047000080B582B000AF78607B68013B68
:1014C000B3F1807F01D301230FE00A4A7B68013B1F
:1014D00053600F214FF0FF30FFF78EFF054B0022C6
:1014E0009A60044B07221A60002318460837BD464D
:1014F00080BD00BF10E000E080B582B000AF786032
:101500007868FFF747FF00BF0837BD4680BD80B54C
:1015100086B000AF0346B9607A60FB7300237B613D
:10152000FFF75CFF78617A68B9687869FFF78EFF2A
:10153000024697F90F3011461846FFF75DFF00BFCE
:101540001837BD4680BD80B582B000AF786078683E
:10155000FFF7B0FF034618460837BD4680BD0000C0
:1015600080B489B000AF7860396000237B610023CC
:101570003B610023BB610023FB6159E10122FB6950
:1015800002FA03F37B613B681B687A6913403B6195
:101590003A697B699A4240F048813B685B68012B5D
:1015A0000BD03B685B68022B07D03B685B68112B54
:1015B00003D03B685B68122B30D17B689B68BB61B2
:1015C000FB695B00032202FA03F3DB43BA691340B1
:1015D000BB613B68DA68FB695B0002FA03F3BA6936
:1015E0001343BB617B68BA699A607B685B68BB61C7
:1015F0000122FB6902FA03F3DB43BA691340BB61C2
:101600003B685B681B0903F00102FB6902FA03F304
:10161000BA691343BB617B68BA695A607B68DB684F
:10162000BB61FB695B00032202FA03F3DB43BA6987
:101630001340BB613B689A68FB695B0002FA03F3E5
:10164000BA691343BB617B68BA69DA603B685B685F
:10165000022B03D03B685B68122B23D1FB69DA08AD
:101660007B68083253F82230BB61FB6903F0070343
:101670009B000F2202FA03F3DB43BA691340BB61FC
:101680003B681A69FB6903F007039B0002FA03F346
:10169000BA691343BB61FB69DA087B680832B96930
:1016A00043F822107B681B68BB61FB695B00032267
:1016B00002FA03F3DB43BA691340BB613B685B6822
:1016C00003F00302FB695B0002FA03F3BA691343F8
:1016D000BB617B68BA691A603B685B6803F0805342
:1016E000002B00F0A2800023FB60564B5B6C554A38
:1016F00043F480435364534B5B6C03F48043FB60BF
:10170000FB68514AFB699B08023352F82330BB61E6
:10171000FB6903F003039B000F2202FA03F3DB4390
:10172000BA691340BB617B68484A934219D07B6811
:10173000474A934213D07B68464A93420DD07B6858
:10174000454A934207D07B68444A934201D104231F
:1017500008E0072306E0032304E0022302E001235C
:1017600000E00023FA6902F0030292009340BA6994
:101770001343BB613449FB699B080233BA6941F8E2
:101780002320374B1B68BB613B69DB43BA691340BD
:10179000BB613B685B6803F48033002B03D0BA69FC
:1017A0003B691343BB612E4ABB6913602C4B5B68DA
:1017B000BB613B69DB43BA691340BB613B685B6853
:1017C00003F40033002B03D0BA693B691343BB61B8
:1017D000234ABB695360224B9B68BB613B69DB4377
:1017E000BA691340BB613B685B6803F48013002B4C
:1017F00003D0BA693B691343BB61194ABB69936063
:10180000174BDB68BB613B69DB43BA691340BB61C3
:101810003B685B6803F40013002B03D0BA693B6993
:101820001343BB610E4ABB69D360FB690133FB61A3
:10183000FB690F2B7FF6A2AE00BF2437BD465DF8D3
:10184000047B70470038024000380140000002402D
:101850000004024000080240000C02400010024058
:10186000003C014080B483B000AF78600B467B80C1
:1018700013467B707B78002B03D07A887B689A6153
:1018800003E07B881A047B689A6100BF0C37BD4671
:101890005DF8047B7047000080B586B000AF7860CB
:1018A0007B68002B01D101235BE27B681B6803F09E
:1018B0000103002B75D0A34B9B6803F00C03042B92
:1018C0000CD0A04B9B6803F00C03082B12D19D4B4E
:1018D0005B6803F48003B3F5800F0BD1994B1B6851
:1018E00003F40033002B5BD07B685B68002B57D17F
:1018F000012336E27B685B68B3F5803F06D1914BEC
:101900001B68904A43F4803313601DE07B685B687A
:10191000B3F5A02F0CD18B4B1B688A4A43F480236C
:101920001360884B1B68874A43F4803313600BE0D5
:10193000844B1B68834A23F480331360814B1B68FC
:10194000804A23F4802313607B685B68002B13D0EC
:10195000FFF758F9386108E0FFF754F902463B6990
:10196000D31A642B01D90323FBE1764B1B6803F4E4
:101970000033002BF0D014E0FFF744F9386108E0A1
:10198000FFF740F902463B69D31A642B01D90323C0
:10199000E7E16C4B1B6803F40033002BF0D100E04F
:1019A00000BF7B681B6803F00203002B63D0654B0C
:1019B0009B6803F00C03002B0BD0624B9B6803F079
:1019C0000C03082B1CD15F4B5B6803F48003002BD6
:1019D00016D15C4B1B6803F00203002B05D07B681B
:1019E000DB68012B01D00123BBE1564B1B6823F0C0
:1019F000F8027B681B69DB00524913430B603AE035
:101A00007B68DB68002B20D04F4B01221A60FFF768
:101A1000F9F8386108E0FFF7F5F802463B69D31A98
:101A2000022B01D903239CE1464B1B6803F0020300
:101A3000002BF0D0434B1B6823F0F8027B681B6936
:101A4000DB00404913430B6015E03F4B00221A6056
:101A5000FFF7D8F8386108E0FFF7D4F802463B6991
:101A6000D31A022B01D903237BE1364B1B6803F009
:101A70000203002BF0D17B681B6803F00803002BE6
:101A800030D07B685B69002B16D0304B01221A6086
:101A9000FFF7B8F8386108E0FFF7B4F802463B6991
:101AA000D31A022B01D903235BE1264B5B6F03F0B2
:101AB0000203002BF0D015E0244B00221A60FFF740
:101AC000A1F8386108E0FFF79DF802463B69D31A98
:101AD000022B01D9032344E11A4B5B6F03F002038D
:101AE000002BF0D17B681B6803F00403002B00F08F
:101AF000A0800023FB75134B1B6C03F08053002B5D
:101B00000FD10023BB600F4B1B6C0E4A43F0805378
:101B100013640C4B1B6C03F08053BB60BB68012348
:101B2000FB750B4B1B6803F48073002B21D1084B12
:101B30001B68074A43F480731360FFF763F838614A
:101B400011E000BF0038024000004742800E4742CB
:101B500000700040FFF756F802463B69D31A022B8B
:101B600001D90323FDE0814B1B6803F48073002B34
:101B7000F0D07B689B68012B06D17D4B1B6F7C4AA4
:101B800043F0010313671CE07B689B68052B0CD1B5
:101B9000774B1B6F764A43F004031367744B1B6F3C
:101BA000734A43F0010313670BE0714B1B6F704ADC
:101BB00023F0010313676E4B1B6F6D4A23F0040380
:101BC00013677B689B68002B15D0FFF71BF8386103
:101BD0000AE0FFF717F802463B69D31A41F2883250
:101BE000934201D90323BCE0614B1B6F03F0020356
:101BF000002BEED014E0FFF705F838610AE0FFF79C
:101C000001F802463B69D31A41F28832934201D966
:101C10000323A6E0564B1B6F03F00203002BEED10B
:101C2000FB7D012B05D1524B1B6C514A23F0805395
:101C300013647B689B69002B00F092804C4B9B687F
:101C400003F00C03082B5CD07B689B69022B41D10D
:101C5000484B00221A60FEF7D5FF386108E0FEF716
:101C6000D1FF02463B69D31A022B01D9032378E046
:101C70003F4B1B6803F00073002BF0D17B68DA69DF
:101C80007B681B6A1A437B685B6A9B011A437B680B
:101C90009B6A5B08013B1B041A437B68DB6A1B06DB
:101CA000334913434B60334B01221A60FEF7AAFFFE
:101CB000386108E0FEF7A6FF02463B69D31A022B03
:101CC00001D903234DE02A4B1B6803F00073002B5E
:101CD000F0D045E0274B00221A60FEF793FF3861F1
:101CE00008E0FEF78FFF02463B69D31A022B01D9A9
:101CF000032336E01E4B1B6803F00073002BF0D16A
:101D00002EE07B689B69012B01D1012329E0184B50
:101D10005B68FB60FB6803F480027B68DB699A42C6
:101D20001CD1FB6803F03F027B681B6A9A4215D105
:101D3000FA6847F6C07313407A68526A93420DD12D
:101D4000FB6803F440327B689B6A9A4206D1FB68C9
:101D500003F070627B68DB6A9A4201D0012300E0E5
:101D6000002318461837BD4680BD00BF00700040F4
:101D7000003802406000474280B584B000AF786010
:101D800039607B68002B01D10123CCE0684B1B68D4
:101D900003F00F033A689A420CD9654B3A68D2B205
:101DA0001A70634B1B6803F00F033A689A4201D024
:101DB0000123B8E07B681B6803F00203002B20D0EE
:101DC0007B681B6803F00403002B05D0594B9B680C
:101DD000584A43F4E05393607B681B6803F00803A0
:101DE000002B05D0534B9B68524A43F460439360E9
:101DF000504B9B6823F0F0027B689B684D4913436E
:101E00008B607B681B6803F00103002B44D07B6868
:101E10005B68012B07D1474B1B6803F40033002B91
:101E200019D101237FE07B685B68022B03D07B68BC
:101E30005B68032B07D13F4B1B6803F00073002B3B
:101E400009D101236FE03B4B1B6803F00203002B19
:101E500001D1012367E0374B9B6823F003027B68C5
:101E60005B68344913438B60FEF7CCFEF8600AE0F0
:101E7000FEF7C8FE0246FB68D31A41F2883293424D
:101E800001D903234FE02B4B9B6803F00C027B68C6
:101E90005B689B009A42EBD1254B1B6803F00F0354
:101EA0003A689A420CD2224B3A68D2B21A70204B4E
:101EB0001B6803F00F033A689A4201D0012332E015
:101EC0007B681B6803F00403002B08D0194B9B6848
:101ED00023F4E0527B68DB68164913438B607B6810
:101EE0001B6803F00803002B09D0124B9B6823F4F6
:101EF00060427B681B69DB000E4913438B6000F076
:101F000021F801460B4B9B681B0903F00F030A4A9B
:101F1000D35C21FA03F3094A1360094B1B68184686
:101F2000FEF72CFE002318461037BD4680BD00BFCB
:101F3000003C02400038024004330008000000204A
:101F400004000020F0B585B000AF00237B600023C3
:101F5000FB6000233B600023BB60504B9B6803F099
:101F60000C03042B07D0082B08D0002B40F08D80E9
:101F70004B4BBB608CE04B4BBB6089E0474B5B68D5
:101F800003F03F037B60454B5B6803F48003002B49
:101F900023D0424B5B689B094FF0000440F2FF11D5
:101FA0004FF0000203EA010504EA02063D4A02FB83
:101FB00006F1002202FB05F20A443A49A5FB0101A1
:101FC000531819467B684FF000041A462346FEF763
:101FD0005FF903460C46FB6049E0304B5B689B09A8
:101FE0004FF0000440F2FF114FF0000203EA010538
:101FF00004EA0206294632464FF000034FF000047F
:10200000540144EAD1644B0119462246491B62EB54
:1020100006024FF000034FF00004940144EA91647B
:102020008B015B1A64EB02044FF000014FF00002D9
:10203000E20042EA5372D9000B4614465B1944EBA6
:1020400006044FF000014FF00002A20242EA935250
:1020500099020B461446184621467B684FF000044F
:102060001A462346FEF714F903460C46FB600B4B59
:102070005B681B0C03F0030301335B003B60FA68F1
:102080003B68B2FBF3F3BB6002E0054BBB6000BFF3
:10209000BB6818461437BD46F0BD00BF003802408B
:1020A0000024F40040787D0180B400AF034B1B682E
:1020B0001846BD465DF8047B704700BF0000002055
:1020C00080B500AFFFF7F0FF0146054B9B689B0A08
:1020D00003F00703034AD35C21FA03F3184680BDDB
:1020E000003802401433000880B500AFFFF7DCFF72
:1020F0000146054B9B685B0B03F00703034AD35C67
:1021000021FA03F3184680BD00380240143300085A
:1021100080B582B000AF78607B68002B01D10123CD
:102120003FE07B6893F83930DBB2002B06D17B6847
:10213000002283F838207868FEF71CFC7B68242294
:1021400083F839207B681B68DA687B681B6822F497
:102150000052DA60786800F00BF97B681B681A6936
:102160007B681B6822F490421A617B681B685A697D
:102170007B681B6822F02A025A617B681B68DA6858
:102180007B681B6842F40052DA607B680022DA63E5
:102190007B68202283F839207B68202283F83A204C
:1021A000002318460837BD4680BD80B588B002AF11
:1021B000F860B9603B601346FB8000237B61FB68DD
:1021C00093F83930DBB2202B40F08380BB68002BC2
:1021D00002D0FB88002B01D101237BE0FB6893F840
:1021E0003830012B01D1022374E0FB68012283F80F
:1021F0003820FB680022DA63FB68212283F839204B
:10220000FEF700FD7861FB68FA889A84FB68FA881B
:10221000DA84FB68002283F8382042E0FB68DB8C1C
:102220009BB2013B9AB2FB68DA84FB689B68B3F50A
:10223000805F22D13B6800937B6900228021F8688F
:1022400000F04CF80346002B01D0032342E0BB68AA
:102250003B613B691B881A46FB681B68C2F3080296
:102260005A60FB681B69002B03D1BB680233BB605B
:1022700017E0BB680133BB6013E03B6800937B69E8
:1022800000228021F86800F029F80346002B01D0D5
:1022900003231FE0BB685A1CBA601A78FB681B68EE
:1022A0005A60FB68DB8C9BB2002BB7D13B68009374
:1022B0007B6900224021F86800F010F80346002BEB
:1022C00001D0032306E0FB68202283F83920002395
:1022D00000E0022318461837BD4680BD80B584B0A3
:1022E00000AFF860B9603B601346FB712CE0BB693E
:1022F000B3F1FF3F28D0BB69002B07D0FEF782FC6B
:1023000002463B68D31ABA699A421DD2FB681B6821
:10231000DA68FB681B6822F4D072DA60FB681B681D
:102320005A69FB681B6822F001025A61FB6820228F
:1023300083F83920FB68202283F83A20FB680022CA
:1023400083F8382003230FE0FB681B681A68BB681A
:102350001340BA689A420CBF01230023DBB21A462D
:10236000FB799A42C3D0002318461037BD4680BD82
:102370002DE9F04F85B000AF78607B681B681B6962
:1023800023F440517B68DA687B681B680A431A6152
:102390007B689A687B681B691A437B685B691A4390
:1023A0007B68DB691343FB607B681B68DB6823F495
:1023B000164323F00C037A681268F9680B43D36064
:1023C0007B681B685B6923F440717B689A697B6852
:1023D0001B680A435A617B68DB69B3F5004F40F024
:1023E0008B817B681B68C14A934205D07B681B6860
:1023F000BF4A934240F0BD80FFF776FEB860BB68ED
:102400001D464FF00006A846B14618EB080349EBFD
:1024100009049846A14618EB050849EB06094FF058
:1024200000014FF000024FEAC90242EA58724FEA37
:10243000C8018846914618EB050049EB06017B6808
:102440005B681D464FF000066B1946EB06041A4602
:102450002346FDF71DFF03460C461A46A54BA3FB7A
:1024600002235B094FEA0318BB681D464FF00006C4
:10247000A946B24619EB09034AEB0A049946A2465B
:1024800019EB05094AEB060A4FF000014FF0000274
:102490004FEACA0242EA59724FEAC9018946924696
:1024A00019EB05004AEB06017B685B681D464FF09F
:1024B00000066B1946EB06041A462346FDF7E8FEB4
:1024C00003460C461A468B4BA3FB02135B0964219F
:1024D00001FB03F3D31ADB003233864AA2FB03234A
:1024E0005B095B0003F4F8739844BB681D464FF02A
:1024F0000006A946B24619EB09034AEB0A049946BD
:10250000A24619EB05094AEB060A4FF000014FF00D
:1025100000024FEACA0242EA59724FEAC9018946EB
:10252000924619EB05004AEB06017B685B681D4685
:102530004FF000066B1946EB06041A462346FDF7DA
:10254000A7FE03460C461A466A4BA3FB02135B091F
:10255000642101FB03F3D31ADB003233654AA2FB8B
:1025600003235B0903F007027B681B6842449A60FF
:102570006FE2FFF7A5FDB860BB681D464FF000068F
:10258000A846B14618EB080349EB09049846A14652
:1025900018EB050849EB06094FF000014FF0000267
:1025A0004FEAC90242EA58724FEAC801884691468A
:1025B00018EB050049EB06017B685B681D464FF090
:1025C00000066B1946EB06041A462346FDF760FE2B
:1025D00003460C461A46474BA3FB02235B094FEA0E
:1025E0000318BB681D464FF00006A946B24619EB1A
:1025F00009034AEB0A049946A24619EB05094AEB7E
:10260000060A4FF000014FF000024FEACA0242EA08
:1026100059724FEAC9018946924619EB05004AEB07
:1026200006017B685B681D464FF000066B1946EBA0
:1026300006041A462346FDF72BFE03460C461A46AF
:102640002C4BA3FB02135B09642101FB03F3D31A98
:10265000DB003233274AA2FB03235B095B0003F450
:10266000F8739844BB681D464FF00006A946B24671
:1026700019EB09034AEB0A049946A24619EB05092E
:102680004AEB060A4FF000014FF000024FEACA027F
:1026900042EA59724FEAC9018946924619EB050090
:1026A0004AEB06017B685B681D464FF000066B191C
:1026B00046EB06041A462346FDF7EAFD03460C46A0
:1026C0001A460C4BA3FB02135B09642101FB03F3C5
:1026D000D31ADB003233074AA2FB03235B0903F062
:1026E00007027B681B6842449A60B2E10010014017
:1026F000001401401F85EB517B681B68D74A934249
:1027000005D07B681B68D64A934240F0D180FFF722
:10271000EBFCB860BB689A464FF0000BD046D94638
:1027200018EB080349EB09049846A14618EB0A0880
:1027300049EB0B094FF000014FF000024FEAC902CC
:1027400042EA58724FEAC801884691461AEB0805DA
:102750004BEB09067B685B6819464FF000024FF0AF
:1027600000034FF00004940044EA91748B001A4671
:10277000234628463146FDF78BFD03460C461A4694
:10278000B84BA3FB02235B094FEA0318BB689B46C7
:102790004FF0000CD946E24619EB09034AEB0A0454
:1027A0009946A24619EB0B094AEB0C0A4FF00001BF
:1027B0004FF000024FEACA0242EA59724FEAC901D9
:1027C000894692461BEB09054CEB0A067B685B6861
:1027D00019464FF000024FF000034FF00004940040
:1027E00044EA91748B001A46234628463146FDF789
:1027F0004FFD03460C461A469A4BA3FB02135B0996
:10280000642101FB03F3D31A1B013233954AA2FB67
:1028100003235B0903F0F0039844BB689B464FF029
:10282000000CD946E24619EB09034AEB0A04994623
:10283000A24619EB0B094AEB0C0A4FF000014FF0CE
:1028400000024FEACA0242EA59724FEAC9018946B8
:1028500092461BEB09054CEB0A067B685B68194640
:102860004FF000024FF000034FF00004940044EAE0
:1028700091748B001A46234628463146FDF708FD21
:1028800003460C461A46774BA3FB02135B096421EF
:1028900001FB03F3D31A1B013233724AA2FB032359
:1028A0005B0903F00F027B681B6842449A60D0E02A
:1028B000FFF706FCB860BB689A464FF0000BD046A5
:1028C000D94618EB080349EB09049846A14618EBD2
:1028D0000A0849EB0B094FF000014FF000024FEAE4
:1028E000C90242EA58724FEAC801884691461AEB7B
:1028F00008054BEB09067B685B6819464FF0000240
:102900004FF000034FF00004940044EA91748B00F0
:102910001A46234628463146FDF7BAFC03460C46C4
:102920001A46504BA3FB02235B094FEA0318BB680E
:102930009B464FF0000CD946E24619EB09034AEBDF
:102940000A049946A24619EB0B094AEB0C0A4FF010
:1029500000014FF000024FEACA0242EA59724FEA00
:10296000C901894692461BEB09054CEB0A067B68B8
:102970005B6819464FF000024FF000034FF000046F
:10298000940044EA91748B001A4623462846314647
:10299000FDF77EFC03460C461A46324BA3FB02139E
:1029A0005B09642101FB03F3D31A1B0132332D4A67
:1029B000A2FB03235B0903F0F0039844BB689B462A
:1029C0004FF0000CD946E24619EB09034AEB0A0422
:1029D0009946A24619EB0B094AEB0C0A4FF000018D
:1029E0004FF000024FEACA0242EA59724FEAC901A7
:1029F000894692461BEB09054CEB0A067B685B682F
:102A000019464FF000024FF000034FF0000494000D
:102A100044EA91748B001A46234628463146FDF756
:102A200037FC03460C461A460E4BA3FB02135B0908
:102A3000642101FB03F3D31A1B013233094AA2FBC1
:102A400003235B0903F00F027B681B6842449A6012
:102A5000FFE700BF1437BD46BDE8F08F001001400E
:102A6000001401401F85EB51014B1868704700BFEF
:102A70000C00002070B50D4E0D4CA41BA4100025B9
:102A8000A54209D10B4E0C4C00F026FCA41BA4104F
:102A90000025A54205D170BD56F82530984701356F
:102AA000EEE756F8253098470135F2E7583300082D
:102AB00058330008583300085C33000802440346CA
:102AC000934200D1704703F8011BF9E70EB400B53B
:102AD0009CB01DAB029006906FF000410948079131
:102AE0000491094953F8042B05910068019302A948
:102AF00000F066F8029B00221A701CB05DF804EB2F
:102B000003B070470C0000200802FFFF2DE9F047DA
:102B10008E689E4282460C469046994637D88A89EE
:102B200012F4906F31D0256809696F1A6569022324
:102B300005EB450595FBF3F509F101033B449D4287
:102B400038BF1D46530530D5294600F02BFB0646FD
:102B500050B90C23CAF80030A38943F04003A38185
:102B60004FF0FF30BDE8F0873A46216900F0A8FA3F
:102B7000A38923F4906343F08003A38126616561F8
:102B80003E44ED1B2660A5604E464E4500D94E469C
:102B900032464146206800F09EFAA3689B1BA36062
:102BA00023681E4426600020DCE72A4600F054FB20
:102BB00006460028E2D12169504600F0A5FAC8E790
:102BC0002DE9F04F1D468B891F069DB080460C46AF
:102BD00016460FD50B696BB9402100F0E3FA20606F
:102BE000206128B90C23C8F800304FF0FF30C8E04E
:102BF000402363610023099320238DF8293030237B
:102C00008DF82A3003954FF0010B37463D4615F8F5
:102C1000013B0BB1252B3ED1B7EB060A0BD0534637
:102C2000324621464046FFF771FF013000F0A48094
:102C3000099B534409933B78002B00F09D800023AF
:102C40004FF0FF32CDE90523049307938DF85330FD
:102C50001A932F46052217F8011B5048FDF7C8FAB2
:102C6000049BD0B9D90644BF20228DF853201A07FF
:102C700044BF2B228DF853202A782A2A15D0079A90
:102C80002F4600200A25394611F8013B303B092B1D
:102C90004DD9B8B10FE02F46B8E7404A801A0BFA79
:102CA00000F0184304903D46D3E7039A111D1268C3
:102CB0000391002A01DB079204E0524243F0020331
:102CC000079204933B782E2B0CD17B782A2B33D19F
:102CD000039B1A1D1B680392002BB8BF4FF0FF33F4
:102CE000023705932E4D397803222846FDF780FAE6
:102CF00038B14023401B03FA00F0049B0343013723
:102D00000493397827488DF8281006227E1CFDF799
:102D10006FFA002838D0244B13BB039B073323F0F2
:102D2000070308330393099B4B4409936DE705FBA5
:102D3000023201200F46A6E700230137059319460A
:102D40000A25384610F8012B303A092A03D9002BFE
:102D5000C8D00591C6E705FB012101230746F0E72E
:102D600003AB00932246114B04A94046AFF3008009
:102D7000B0F1FF3F8146D6D1A3895B063FF535AF61
:102D800009981DB0BDE8F08F03AB00932246074BB6
:102D900004A9404600F082F8EAE700BF1C330008AF
:102DA0002233000826330008000000000D2B000825
:102DB0002DE9F04791461F468A680B69DDF82080AF
:102DC0009342B8BF1346C9F8003091F84320064635
:102DD0000C4612B10133C9F800302368990642BF8E
:102DE000D9F800300233C9F80030256815F006051F
:102DF00007D104F1190AE368D9F800209B1AAB4205
:102E000028DC94F843302268003318BF012392066F
:102E10002DD404F1430239463046C047013020D05A
:102E20002368E568D9F8002003F00603042B08BFE7
:102E3000AD1AA36822690CBF25EAE5750025934207
:102E4000C4BF9B1AED184FF000091A344D451AD132
:102E5000002008E00123524639463046C047013081
:102E600003D14FF0FF30BDE8F0870135C3E7E1182B
:102E70005A1C302081F84300224494F8451082F80F
:102E800043100233C5E70123224639463046C04786
:102E90000130E6D009F10109D8E700002DE9F0433F
:102EA00001F1430C0C46097E85B06E291746064693
:102EB00098460C9A00F0B38022D8632936D00AD8FD
:102EC000002900F0B980582900F0838004F1420500
:102ED00084F8421032E0642901D06929F6D12068D3
:102EE0001368050603F104012AD51B681160002B45
:102EF00003DA2D225B4284F843206F480A2239E02E
:102F0000732900F09D8008D86F2920D07029DDD169
:102F1000236843F02003236003E0752917D0782944
:102F2000D4D1782384F84530644855E01368191DDE
:102F30001B68116004F1420584F8423001238CE0E3
:102F40001B68116010F0400F18BF1BB2CFE7136869
:102F50002568181D1060280601D51B6802E0680668
:102F6000FBD51B8854486F2914BF0A220822002170
:102F700084F843106568A560002DC0F29580216833
:102F800021F004012160002B3DD1002D40F08E8006
:102F90006546082A0BD12368DB0708D523696268D8
:102FA0009A42DEBF302305F8013C05F1FF35ACEB5A
:102FB00005032361CDF800803B4603AA2146304635
:102FC000FFF7F6FE01304DD14FF0FF3005B0BDE800
:102FD000F083394884F84510136821681D1D1B686B
:102FE00015600A060BD5CA0744BF41F020012160D5
:102FF0001BB9226822F0200222601022B7E74D069A
:1030000048BF9BB2EFE76546B3FBF2F102FB113319
:10301000C35C05F8013D0B460029F5D1B9E71368FB
:1030200025686169181D106028061B6801D51960A4
:1030300002E06A06FBD51980002323616546B9E7E3
:103040001368191D11601D68626800212846FDF78C
:10305000CFF808B1401B606063682361002384F8E7
:103060004330A7E723692A4639463046C047013036
:10307000AAD023689B0713D4E068039B9842B8BF8B
:103080001846A3E701234A4639463046C047013077
:103090009AD00135E368039A9B1AAB42F2DCEBE766
:1030A000002504F11909F5E7002BACD1037884F869
:1030B000423004F142056CE72D3300083E3300082E
:1030C00010B5431E0A44914200D110BD11F8014BC6
:1030D00003F8014FF7E7884210B501EB020307D868
:1030E000421E99420AD011F8014B02F8014FF8E74D
:1030F0008342F5D98118D21AD34200D110BD13F8FA
:10310000014D01F8014DF7E738B50546002945D0D6
:1031100051F8043C0C1F002BB8BFE41800F0D2F8A3
:103120001F4A1368104633B9636014602846BDE82F
:10313000384000F0C8B8A3420CD921686218934205
:1031400004BF1A685B68636004BF521822600460A1
:10315000ECE713465A680AB1A242FAD9196858181E
:10316000A0420BD120680144581882421960DDD179
:10317000106852685A6001441960D7E702D90C23DD
:103180002B60D3E7206821188A4204BF1168526877
:10319000626004BF091821605C60C7E738BD00BFEA
:1031A0009000002070B5CD1C25F0030508350C2DCE
:1031B00038BF0C25002D064601DBA94203D90C239C
:1031C0003360002070BD00F07DF8214A146821466C
:1031D00091B9204C23681BB9304600F063F8206099
:1031E0002946304600F05EF8431C24D10C2333609E
:1031F000304600F068F8E4E70B685B1B18D40B2B33
:103200000FD90B60CD50CC18304600F05CF804F1BB
:103210000B00231D20F00700C31AD3D05A42E250FE
:10322000D0E78C424B6816BF636013600C46EBE737
:103230000C464968CCE7C41C24F00304A04205D026
:10324000211A304600F02EF80130CFD02560DBE7A0
:103250009000002094000020F8B5074614460E4662
:1032600021B91146BDE8F840FFF79CBF22B9FFF72E
:103270004BFF25462846F8BD00F026F8A0420FD2A5
:1032800021463846FFF78EFF05460028F2D031462A
:103290002246FFF715FF31463846FFF735FFE9E7CD
:1032A0003546E7E738B5064C002305460846236057
:1032B000FDF7D6FB431C02D1236803B12B6038BD58
:1032C000240100207047704751F8043C181F002B60
:1032D000BCBF0B58C0187047F8B500BFF8BC08BC9D
:1032E0009E467047F8B500BFF8BC08BC9E467047C4
:1032F00052617720414443203A2025642025250D42
:103300000A000000000000000000000001020304A9
:10331000060708090000000001020304232D302BDA
:103320002000686C4C0065666745464700303132C6
:10333000333435363738394142434445460030311D
:10334000323334353637383961626364656600007C
:0833500070CFFF7F01000000B7
:04335800C5010008A3
:04335C00A1010008C3
:103360000024F40010000000010000001000002004
:10337000000000000000000000000000000000004D
:10338000000000000000000000000000000000003D
:10339000000000000000000000000000000000002D
:1033A000000000000000000000000000000000001D
:1033B000000000000000000000000000000000000D
:1033C00000000000000000000000000000000000FD
:0400000508000AE500
:00000001FF
