:020000040800F2
:1000000000000120650B0008850A0008930A00081B
:10001000990A00089F0A0008A50A000800000000CD
:10002000000000000000000000000000AB0A000813
:10003000B90A000800000000C70A0008D50A000835
:10004000B50B0008B50B0008B50B0008B50B000890
:10005000B50B0008B50B0008B50B0008B50B000880
:10006000B50B0008B50B0008B50B0008B50B000870
:10007000B50B0008B50B0008B50B0008B50B000860
:10008000B50B0008B50B0008B50B00080000000018
:10009000000000000000000000000000B50B000898
:1000A000B50B0008B50B0008B50B0008B50B000830
:1000B000B50B0008B50B0008B50B0008B50B000820
:1000C000B50B0008B50B0008B50B0008B50B000810
:1000D000B50B0008B50B0008B50B000800000000C8
:1000E000B50B0008B50B0008B50B000800000000B8
:1000F000000000000000000000000000B50B000838
:1001000000000000B50B0008B50B0008B50B000897
:1001100000000000000000000000000000000000DF
:10012000B50B0008B50B0008B50B0008B50B0008AF
:10013000B50B0008000000000000000000000000F7
:10014000000000000000000000000000B50B0008E7
:10015000B50B0008B50B0008B50B0008B50B00087F
:10016000B50B0008B50B00080000000000000000FF
:10017000000000000000000000000000000000007F
:1001800000000000B50B00080000000000000000A7
:04019000B50B0008A3
:1001A00010B5054C237833B9044B13B10448AFF3B1
:1001B00000800123237010BD7000002000000000AB
:1001C0006422000808B5034B1BB103490348AFF391
:1001D000008008BD000000007400002064220008B8
:1001E000034613F8012B002AFBD1181A0138704777
:1001F00001F0FF01102A2BDB10F0070F08D010F8D8
:10020000013B013A8B422DD010F0070F42B3F6D1DB
:10021000F0B441EA012141EA014122F007047FF0F4
:1002200000070023F0E80256083C85EA010586EA4B
:10023000010685FA47F5A3FA87F586FA47F6A5FA87
:1002400087F68EB9EED1F0BC01F0FF0102F0070293
:1002500032B110F8013B013A83EA010313B1F8D13E
:100260000020704701387047002D06BF354603381F
:10027000073815F0010F07D1013015F4807F02BF58
:10028000013015F4C03F0130F0BC0138704700BFA9
:1002900053B94AB9002908BF00281CBF4FF0FF31ED
:1002A0004FF0FF3000F072B9ADF1080C6DE904CEEB
:1002B00000F006F8DDF804E0DDE9022304B0704741
:1002C0002DE9F047089E04468846002B4BD18A4210
:1002D000154667D9B2FA82F24AB1C2F1200701FA93
:1002E00002F320FA07F7954047EA030894404FEAE3
:1002F000154E230CB8FBFEF71FFA85FC0EFB178882
:1003000043EA084307FB0CF1994209D9EB1807F1BE
:10031000FF3080F01B81994240F21881023F2B444C
:100320005B1AA4B2B3FBFEF00EFB103344EA0344A5
:1003300000FB0CFCA44509D92C1900F1FF3380F017
:100340000781A44540F2048102382C4440EA07406A
:10035000A4EB0C0400271EB1D4400023C6E90043DF
:100360003946BDE8F0878B4209D9002E00F0EB80BA
:100370000027C6E9000138463946BDE8F087B3FAE0
:1003800083F7002F47D18B4202D3824200F2FA80DA
:10039000841A61EB030301209846002EE0D0C6E9E1
:1003A0000048DDE702B9FFDEB2FA82F2002A40F02F
:1003B0008F80491B4FEA154E1FFA85F80127B1FBC4
:1003C000FEFC230C0EFB1C1143EA014308FB0CF15D
:1003D000994207D9EB180CF1FF3002D2994200F292
:1003E000CD808446591AA3B2B1FBFEF00EFB101467
:1003F00043EA044408FB00F8A04507D92C1900F192
:10040000FF3302D2A04500F2B6801846A4EB0804E0
:1004100040EA0C409FE7C7F1200CBB4022FA0CFEDB
:100420004EEA030E01FA07F420FA0CF521FA0CF358
:100430004FEA1E482543B3FBF8F92C0C08FB19338F
:100440001FFA8EFA44EA034309FB0AF49C4202FABB
:1004500007F200FA07F10BD91EEB030309F1FF3095
:1004600080F087809C4240F28480A9F102097344A5
:100470001B1BADB2B3FBF8F008FB103345EA034495
:1004800000FB0AFAA24508D91EEB040400F1FF3371
:100490006BD2A24569D90238744440EA0940A0FBF6
:1004A0000289A4EB0A044C45C2464B4654D351D0B2
:1004B000002E69D0B1EB0A0564EB030404FA0CFCCE
:1004C000FD40FC404CEA0505C6E90054002747E71B
:1004D000C2F1200320FA03F7954001FA02F021FA55
:1004E00003F34FEA154E3843010CB3FBFEF71FFA36
:1004F00085F80EFB173341EA034107FB08F38B42F3
:1005000004FA02F407D9691807F1FF3C2FD28B4295
:100510002DD9023F2944CB1A81B2B3FBFEF00EFB6A
:10052000103341EA034100FB08F38B4207D96918F5
:1005300000F1FF3C17D28B4215D902382944C91A61
:1005400040EA07473BE73746304609E70746E7E614
:100550001846FBE64145ABD2B8EB020A69EB0E0246
:1005600001381346A4E76046E9E7184695E7674671
:10057000D1E781467CE702382C4447E7ACF1020C16
:100580002B442FE7384608E73746E9E6704700BFB7
:10059000B0B58AB000AFF860B9607A603B6097F898
:1005A000443087F82630B7F84030BB84FB6B3B62A1
:1005B0003B8FBB833B68BB617B687B61BB683B61F6
:1005C00007F11003184600F00EF8FB681D4607F10E
:1005D00010040FCC0FC594E8030085E80300F86809
:1005E0002837BD46B0BD80B582B000AF78607B686B
:1005F0009B7D002B0CD13321786800F055F8322117
:10060000786800F051F82821786800F04DF803E090
:100610003821786800F048F80121786800F044F843
:100620000C21786800F040F80621786800F03CF86A
:1006300000BF0837BD4680BD90B585B000AF78607B
:1006400039600023FB730AE0FB7B3A6813441B7894
:100650001946786800F056F8FB7B0133FB73FC7B8E
:100660003868FFF7BDFD03469C42EDD300BF143749
:10067000BD4690BD80B582B000AF78600B46FB7080
:100680001346BB70FB78074AD25CBB781344DBB2DD
:10069000803BDBB21946786800F006F800BF0837E7
:1006A000BD4680BDB822000880B582B000AF78603A
:1006B0000B46FB707B6898687B689B890022194613
:1006C00000F076FD7B689B7D002B11D1FB781B0928
:1006D000DBB204221946786800F042F8FB7803F098
:1006E0000F03DBB204221946786800F039F805E000
:1006F000FB7808221946786800F032F800BF083706
:10070000BD4680BD80B582B000AF78600B46FB70FF
:100710007B6898687B689B890122194600F048FD38
:100720007B689B7D002B11D1FB781B09DBB2042277
:100730001946786800F014F8FB7803F00F03DBB279
:1007400004221946786800F00BF805E0FB780822CF
:100750001946786800F004F800BF0837BD4680BD30
:1007600080B584B000AF78600B46FB701346BB7059
:100770000023FB7319E07B681A68FB7B9B00134422
:1007800018687B685A68FB7B5B0013441988FA7809
:10079000FB7B42FA03F3DBB203F00103DBB21A4640
:1007A00000F006FDFB7B0133FB73FA7BBB789A42BA
:1007B000E1D37B6818697B689B8A0122194600F0A7
:1007C000F7FC012000F06AFA7B6818697B689B8A55
:1007D0000022194600F0ECFC00BF1037BD4680BD7A
:1007E00090B599B004AF414B07F134040FCB84E8C6
:1007F0000F003F4A07F12C0392E8030083E803004F
:100800001723FB643B23BB6400237B6407F11C03B9
:1008100000221A605A609A60DA6000F0CDF900F0A8
:100820006FF800F0CDF8381D07F12C0207F1340104
:1008300000230393102302932E4B01932023009354
:100840002C4BFFF7A5FE3B1D062201211846FFF7A2
:1008500011FF37237B6445E007F11C007B6C00939C
:10086000BB6CFA6C244901F0F7F83B1D042200210F
:100870001846FFF7FFFE07F11C023B1D1146184604
:10088000FFF7DAFE7B6C3B2B05D1BB6C0133BB64FD
:100890004FF0FF337B64BB6C3C2B07D1FB6C013307
:1008A000FB640023BB644FF0FF337B64FB6C182BAD
:1008B00006D10023FB640023BB644FF0FF337B644D
:1008C0003B1D002201211846FFF7D4FE3B1D0B49BA
:1008D0001846FFF7B1FE4FF4FA7000F0DFF97B6CB9
:1008E00001337B647B6C3B2BB6D9B2E7A0220008B6
:1008F000B0220008000402407C2200088C2200087C
:1009000080B594B000AF07F12003302200211846D3
:1009100001F09AF807F10C0300221A605A609A60FD
:10092000DA601A610023BB60234B1B6C224A43F040
:1009300080531364204B1B6C03F08053BB60BB6877
:1009400000237B601D4B1B6823F440431B4A43F488
:1009500000431360194B1B6803F440437B607B68C2
:1009600002233B620123FB6210233B630023BB6332
:1009700007F12003184600F035FC0346002B01D098
:1009800000F050F80F23FB6000233B6100237B61E4
:100990000023BB610023FB6107F10C030021184613
:1009A00000F090FE0346002B01D000F03BF800BFA2
:1009B0005037BD4680BD00BF003802400070004087
:1009C00080B586B000AF3B1D00221A605A609A6065
:1009D000DA601A6100233B60104B1B6B0F4A43F037
:1009E000020313630D4B1B6B03F002033B603B6878
:1009F00000223F210A4800F0DBFB3F237B600123FC
:100A0000BB600123FB6000233B613B1D194604488A
:100A100000F04CFA00BF1837BD4680BD00380240D8
:100A20000004024080B400AF00BFBD465DF8047B07
:100A30007047000080B483B000AF00237B60104B90
:100A40005B6C0F4A43F4804353640D4B5B6C03F4BF
:100A500080437B607B6800233B60094B1B6C084A2A
:100A600043F080531364064B1B6C03F080533B60D0
:100A70003B6800BF0C37BD465DF8047B704700BF84
:100A80000038024080B400AF00BFBD465DF8047B73
:100A9000704780B400AFFEE780B400AFFEE780B4DB
:100AA00000AFFEE780B400AFFEE780B400AF00BF48
:100AB000BD465DF8047B704780B400AF00BFBD4603
:100AC0005DF8047B704780B400AF00BFBD465DF8A1
:100AD000047B704780B500AF00F0C0F800BF80BD58
:100AE00080B584B000AF7860114B1B68002B02D139
:100AF0000F4B104A1A600E4B1B68FB600C4B1A68B8
:100B00007B6813446A46934207D900F073FF02469C
:100B10000C2313604FF0FF3306E0054B1A687B6827
:100B20001344034A1360FB6818461037BD4680BD66
:100B30008C000020A000002080B400AF084BD3F848
:100B40008830074A43F47003C2F88830044B4FF0F2
:100B500000629A6000BFBD465DF8047B704700BF2D
:100B600000ED00E0DFF834D0002103E00C4B5B58CF
:100B7000435004310B480C4B42189A42F6D30B4AAF
:100B800002E0002342F8043B094B9A42F9D3FFF7F5
:100B9000D3FF00F035FFFFF723FE70470000012070
:100BA00010230008000000207000002070000020CA
:100BB000A0000020FEE7000080B500AF0E4B1B68D0
:100BC0000D4A43F4007313600B4B1B680A4A43F44D
:100BD00080631360084B1B68074A43F480731360FB
:100BE000032000F02FF9002000F008F8FFF722FFA3
:100BF0000023184680BD00BF003C024080B582B093
:100C000000AF7860124B1A68124B1B7819464FF4EC
:100C10007A73B3FBF1F3B2FBF3F3184600F039F942
:100C20000346002B01D001230EE07B680F2B0AD86E
:100C3000002279684FF0FF3000F00FF9064A7B6818
:100C40001360002300E0012318460837BD4680BD2D
:100C500000000020080000200400002080B400AF45
:100C6000064B1B781A46064B1B681344044A136054
:100C700000BFBD465DF8047B704700BF0800002040
:100C80009800002080B400AF034B1B681846BD4697
:100C90005DF8047B704700BF9800002080B584B0E9
:100CA00000AF7860FFF7EEFFB8607B68FB60FB6821
:100CB000B3F1FF3F05D0094B1B781A46FB6813447C
:100CC000FB6000BFFFF7DEFF0246BB68D31AFA687D
:100CD0009A42F7D800BF1037BD4680BD08000020FB
:100CE00080B485B000AF78607B6803F00703FB60D9
:100CF0000C4BDB68BB60BA684FF6FF031340BB6068
:100D0000FB681A02BB68134343F0BF6343F400332C
:100D1000BB60044ABB68D36000BF1437BD465DF8B2
:100D2000047B704700ED00E080B400AF044BDB684B
:100D30001B0A03F007031846BD465DF8047B7047A5
:100D400000ED00E080B483B000AF03463960FB7172
:100D500097F90730002B0ADB3B68DAB20C4997F9A8
:100D600007301201D2B20B4483F800230AE03B683B
:100D7000DAB20849FB7903F00F03043B1201D2B247
:100D80000B441A7600BF0C37BD465DF8047B7047F4
:100D900000E100E000ED00E080B489B000AFF86051
:100DA000B9607A60FB6803F00703FB61FB69C3F17C
:100DB0000703042B28BF0423BB61FB690433062B04
:100DC00002D9FB69033B00E000237B614FF0FF3257
:100DD000BB6902FA03F3DA43BB681A407B699A40A5
:100DE0004FF0FF317B6901FA03F3D9437B680B4075
:100DF000134318462437BD465DF8047B7047000056
:100E000080B582B000AF78607B68013BB3F1807F32
:100E100001D301230FE00A4A7B68013B53600F2195
:100E20004FF0FF30FFF78EFF054B00229A60044B16
:100E300007221A60002318460837BD4680BD00BF50
:100E400010E000E080B582B000AF78607868FFF70E
:100E500047FF00BF0837BD4680BD80B586B000AFF4
:100E60000346B9607A60FB7300237B61FFF75CFF88
:100E700078617A68B9687869FFF78EFF024697F95A
:100E80000F3011461846FFF75DFF00BF1837BD460B
:100E900080BD80B582B000AF78607868FFF7B0FFA2
:100EA000034618460837BD4680BD000080B489B0AF
:100EB00000AF7860396000237B6100233B61002331
:100EC000BB610023FB6159E10122FB6902FA03F3D4
:100ED0007B613B681B687A6913403B613A697B69B7
:100EE0009A4240F048813B685B68012B0BD03B681D
:100EF0005B68022B07D03B685B68112B03D03B6813
:100F00005B68122B30D17B689B68BB61FB695B001F
:100F1000032202FA03F3DB43BA691340BB613B6867
:100F2000DA68FB695B0002FA03F3BA691343BB6139
:100F30007B68BA699A607B685B68BB610122FB6968
:100F400002FA03F3DB43BA691340BB613B685B6899
:100F50001B0903F00102FB6902FA03F3BA691343A8
:100F6000BB617B68BA695A607B68DB68BB61FB69FF
:100F70005B00032202FA03F3DB43BA691340BB614F
:100F80003B689A68FB695B0002FA03F3BA69134392
:100F9000BB617B68BA69DA603B685B68022B03D08F
:100FA0003B685B68122B23D1FB69DA087B68083247
:100FB00053F82230BB61FB6903F007039B000F224B
:100FC00002FA03F3DB43BA691340BB613B681A6959
:100FD000FB6903F007039B0002FA03F3BA691343AA
:100FE000BB61FB69DA087B680832B96943F82210F3
:100FF0007B681B68BB61FB695B00032202FA03F399
:10100000DB43BA691340BB613B685B6803F00302D2
:10101000FB695B0002FA03F3BA691343BB617B68A7
:10102000BA691A603B685B6803F08053002B00F0DC
:10103000A2800023FB60564B5B6C554A43F480430F
:101040005364534B5B6C03F48043FB60FB68514A71
:10105000FB699B08023352F82330BB61FB6903F044
:1010600003039B000F2202FA03F3DB43BA69134028
:10107000BB617B68484A934219D07B68474A9342D8
:1010800013D07B68464A93420DD07B68454A934211
:1010900007D07B68444A934201D1042308E0072328
:1010A00006E0032304E0022302E0012300E0002322
:1010B000FA6902F0030292009340BA691343BB61DC
:1010C0003449FB699B080233BA6941F82320374B46
:1010D0001B68BB613B69DB43BA691340BB613B687A
:1010E0005B6803F48033002B03D0BA693B69134378
:1010F000BB612E4ABB6913602C4B5B68BB613B69CB
:10110000DB43BA691340BB613B685B6803F400339F
:10111000002B03D0BA693B691343BB61234ABB6907
:101120005360224B9B68BB613B69DB43BA69134048
:10113000BB613B685B6803F48013002B03D0BA6982
:101140003B691343BB61194ABB699360174BDB686A
:10115000BB613B69DB43BA691340BB613B685B68B9
:1011600003F40013002B03D0BA693B691343BB613E
:101170000E4ABB69D360FB690133FB61FB690F2B2E
:101180007FF6A2AE00BF2437BD465DF8047B7047F2
:1011900000380240003801400000024000040240D4
:1011A00000080240000C024000100240003C0140D8
:1011B00080B483B000AF78600B467B8013467B70B1
:1011C0007B78002B03D07A887B689A6103E07B8868
:1011D0001A047B689A6100BF0C37BD465DF8047B3A
:1011E0007047000080B586B000AF78607B68002B48
:1011F00001D101235BE27B681B6803F00103002B34
:1012000075D0A34B9B6803F00C03042B0CD0A04BB0
:101210009B6803F00C03082B12D19D4B5B6803F411
:101220008003B3F5800F0BD1994B1B6803F4003397
:10123000002B5BD07B685B68002B57D1012336E223
:101240007B685B68B3F5803F06D1914B1B68904A81
:1012500043F4803313601DE07B685B68B3F5A02F17
:101260000CD18B4B1B688A4A43F480231360884B54
:101270001B68874A43F4803313600BE0844B1B6880
:10128000834A23F480331360814B1B68804A23F424
:10129000802313607B685B68002B13D0FFF7F2FCA0
:1012A000386108E0FFF7EEFC02463B69D31A642B75
:1012B00001D90323FBE1764B1B6803F40033002BB9
:1012C000F0D014E0FFF7DEFC386108E0FFF7DAFC4D
:1012D00002463B69D31A642B01D90323E7E16C4B27
:1012E0001B6803F40033002BF0D100E000BF7B68E3
:1012F0001B6803F00203002B63D0654B9B6803F06F
:101300000C03002B0BD0624B9B6803F00C03082BE3
:101310001CD15F4B5B6803F48003002B16D15C4B40
:101320001B6803F00203002B05D07B68DB68012BF0
:1013300001D00123BBE1564B1B6823F0F8027B6808
:101340001B69DB00524913430B603AE07B68DB68A2
:10135000002B20D04F4B01221A60FFF793FC38611D
:1013600008E0FFF78FFC02463B69D31A022B01D934
:1013700003239CE1464B1B6803F00203002BF0D0D3
:10138000434B1B6823F0F8027B681B69DB00404974
:1013900013430B6015E03F4B00221A60FFF772FC0D
:1013A000386108E0FFF76EFC02463B69D31A022B56
:1013B00001D903237BE1364B1B6803F00203002BAA
:1013C000F0D17B681B6803F00803002B30D07B68EA
:1013D0005B69002B16D0304B01221A60FFF752FCDC
:1013E000386108E0FFF74EFC02463B69D31A022B36
:1013F00001D903235BE1264B5B6F03F00203002B53
:10140000F0D015E0244B00221A60FFF73BFC386156
:1014100008E0FFF737FC02463B69D31A022B01D9DB
:10142000032344E11A4B5B6F03F00203002BF0D15E
:101430007B681B6803F00403002B00F0A0800023EE
:10144000FB75134B1B6C03F08053002B0FD1002353
:10145000BB600F4B1B6C0E4A43F0805313640C4B64
:101460001B6C03F08053BB60BB680123FB750B4B07
:101470001B6803F48073002B21D1084B1B68074ABB
:1014800043F480731360FFF7FDFB386111E000BF88
:101490000038024000004742800E47420070004082
:1014A000FFF7F0FB02463B69D31A022B01D9032355
:1014B000FDE0814B1B6803F48073002BF0D07B6848
:1014C0009B68012B06D17D4B1B6F7C4A43F00103C7
:1014D00013671CE07B689B68052B0CD1774B1B6F57
:1014E000764A43F004031367744B1B6F734A43F04F
:1014F000010313670BE0714B1B6F704A23F001036C
:1015000013676E4B1B6F6D4A23F0040313677B68F0
:101510009B68002B15D0FFF7B5FB38610AE0FFF799
:10152000B1FB02463B69D31A41F28832934201D99A
:101530000323BCE0614B1B6F03F00203002BEED0D2
:1015400014E0FFF79FFB38610AE0FFF79BFB0246C0
:101550003B69D31A41F28832934201D90323A6E0B2
:10156000564B1B6F03F00203002BEED1FB7D012BCA
:1015700005D1524B1B6C514A23F0805313647B6896
:101580009B69002B00F092804C4B9B6803F00C038E
:10159000082B5CD07B689B69022B41D1484B002211
:1015A0001A60FFF76FFB386108E0FFF76BFB02463C
:1015B0003B69D31A022B01D9032378E03F4B1B6808
:1015C00003F00073002BF0D17B68DA697B681B6A3B
:1015D0001A437B685B6A9B011A437B689B6A5B08C2
:1015E000013B1B041A437B68DB6A1B063349134328
:1015F0004B60334B01221A60FFF744FB386108E06F
:10160000FFF740FB02463B69D31A022B01D90323A3
:101610004DE02A4B1B6803F00073002BF0D045E02F
:10162000274B00221A60FFF72DFB386108E0FFF717
:1016300029FB02463B69D31A022B01D9032336E06A
:101640001E4B1B6803F00073002BF0D12EE07B686B
:101650009B69012B01D1012329E0184B5B68FB60DA
:10166000FB6803F480027B68DB699A421CD1FB684B
:1016700003F03F027B681B6A9A4215D1FA6847F66D
:10168000C07313407A68526A93420DD1FB6803F429
:1016900040327B689B6A9A4206D1FB6803F0706215
:1016A0007B68DB6A9A4201D0012300E000231846E0
:1016B0001837BD4680BD00BF0070004000380240B2
:1016C0006000474280B584B000AF786039607B68C5
:1016D000002B01D10123CCE0684B1B6803F00F0302
:1016E0003A689A420CD9654B3A68D2B21A70634B89
:1016F0001B6803F00F033A689A4201D00123B8E057
:101700007B681B6803F00203002B20D07B681B68FA
:1017100003F00403002B05D0594B9B68584A43F44F
:10172000E05393607B681B6803F00803002B05D02F
:10173000534B9B68524A43F460439360504B9B6801
:1017400023F0F0027B689B684D4913438B607B68F4
:101750001B6803F00103002B44D07B685B68012BFE
:1017600007D1474B1B6803F40033002B19D1012329
:101770007FE07B685B68022B03D07B685B68032B90
:1017800007D13F4B1B6803F00073002B09D10123E5
:101790006FE03B4B1B6803F00203002B01D10123D8
:1017A00067E0374B9B6823F003027B685B68344932
:1017B00013438B60FFF766FAF8600AE0FFF762FAFE
:1017C0000246FB68D31A41F28832934201D90323BF
:1017D0004FE02B4B9B6803F00C027B685B689B001F
:1017E0009A42EBD1254B1B6803F00F033A689A42EB
:1017F0000CD2224B3A68D2B21A70204B1B6803F00D
:101800000F033A689A4201D0012332E07B681B68DB
:1018100003F00403002B08D0194B9B6823F4E0521B
:101820007B68DB68164913438B607B681B6803F099
:101830000803002B09D0124B9B6823F460427B689D
:101840001B69DB000E4913438B6000F021F8014651
:101850000B4B9B681B0903F00F030A4AD35C21FA68
:1018600003F3094A1360094B1B681846FFF7C6F9D2
:10187000002318461037BD4680BD00BF003C024023
:1018800000380240BC2200080000002004000020B4
:10189000F0B585B000AF00237B600023FB60002320
:1018A0003B600023BB60504B9B6803F00C03042B90
:1018B00007D0082B08D0002B40F08D804B4BBB602D
:1018C0008CE04B4BBB6089E0474B5B6803F03F0308
:1018D0007B60454B5B6803F48003002B23D0424BB5
:1018E0005B689B094FF0000440F2FF114FF00002CB
:1018F00003EA010504EA02063D4A02FB06F1002262
:1019000002FB05F20A443A49A5FB010153181946A6
:101910007B684FF000041A462346FEF7B9FC0346E5
:101920000C46FB6049E0304B5B689B094FF00004BC
:1019300040F2FF114FF0000203EA010504EA02063B
:10194000294632464FF000034FF00004540144EAA8
:10195000D1644B0119462246491B62EB06024FF047
:1019600000034FF00004940144EA91648B015B1A78
:1019700064EB02044FF000014FF00002E20042EA83
:101980005372D9000B4614465B1944EB06044FF022
:1019900000014FF00002A20242EA935299020B4664
:1019A0001446184621467B684FF000041A46234629
:1019B000FEF76EFC03460C46FB600B4B5B681B0C92
:1019C00003F0030301335B003B60FA683B68B2FB42
:1019D000F3F3BB6002E0054BBB6000BFBB68184679
:1019E0001437BD46F0BD00BF003802400024F400AB
:1019F00040787D01014B1868704700BF0C00002043
:101A000070B50D4E0D4CA41BA4100025A54209D1A4
:101A10000B4E0C4C00F026FCA41BA4100025A54284
:101A200005D170BD56F8253098470135EEE756F8D8
:101A3000253098470135F2E70823000808230008FD
:101A4000082300080C23000802440346934200D1F7
:101A5000704703F8011BF9E70EB400B59CB01DAB4D
:101A6000029006906FF000410948079104910949DE
:101A700053F8042B05910068019302A900F066F861
:101A8000029B00221A701CB05DF804EB03B0704793
:101A90000C0000200802FFFF2DE9F0478E689E42EF
:101AA00082460C469046994637D88A8912F4906F40
:101AB00031D0256809696F1A6569022305EB450570
:101AC00095FBF3F509F101033B449D4238BF1D46E8
:101AD000530530D5294600F02BFB064650B90C23A0
:101AE000CAF80030A38943F04003A3814FF0FF30D0
:101AF000BDE8F0873A46216900F0A8FAA38923F4EB
:101B0000906343F08003A381266165613E44ED1B31
:101B10002660A5604E464E4500D94E4632464146A7
:101B2000206800F09EFAA3689B1BA36023681E44F4
:101B300026600020DCE72A4600F054FB0646002819
:101B4000E2D12169504600F0A5FAC8E72DE9F04F2F
:101B50001D468B891F069DB080460C4616460FD544
:101B60000B696BB9402100F0E3FA2060206128B9CD
:101B70000C23C8F800304FF0FF30C8E04023636109
:101B80000023099320238DF8293030238DF82A3043
:101B900003954FF0010B37463D4615F8013B0BB15D
:101BA000252B3ED1B7EB060A0BD0534632462146D1
:101BB0004046FFF771FF013000F0A480099B5344B9
:101BC00009933B78002B00F09D8000234FF0FF32FB
:101BD000CDE90523049307938DF853301A932F46CC
:101BE000052217F8011B5048FEF702FB049BD0B9F1
:101BF000D90644BF20228DF853201A0744BF2B2258
:101C00008DF853202A782A2A15D0079A2F460020CB
:101C10000A25394611F8013B303B092B4DD9B8B1A3
:101C20000FE02F46B8E7404A801A0BFA00F018433D
:101C300004903D46D3E7039A111D12680391002AD0
:101C400001DB079204E0524243F00203079204933F
:101C50003B782E2B0CD17B782A2B33D1039B1A1D7A
:101C60001B680392002BB8BF4FF0FF330237059378
:101C70002E4D397803222846FEF7BAFA38B14023B0
:101C8000401B03FA00F0049B0343013704933978A7
:101C900027488DF8281006227E1CFEF7A9FA002896
:101CA00038D0244B13BB039B073323F007030833BF
:101CB0000393099B4B4409936DE705FB0232012016
:101CC0000F46A6E700230137059319460A25384633
:101CD00010F8012B303A092A03D9002BC8D00591FE
:101CE000C6E705FB012101230746F0E703AB00939C
:101CF0002246114B04A94046AFF30080B0F1FF3FEC
:101D00008146D6D1A3895B063FF535AF09981DB052
:101D1000BDE8F08F03AB00932246074B04A9404671
:101D200000F082F8EAE700BFCC220008D2220008C7
:101D3000D622000800000000991A00082DE9F0479B
:101D400091461F468A680B69DDF820809342B8BF30
:101D50001346C9F8003091F8432006460C4612B1EC
:101D60000133C9F800302368990642BFD9F8003022
:101D70000233C9F80030256815F0060507D104F1D3
:101D8000190AE368D9F800209B1AAB4228DC94F8C2
:101D900043302268003318BF012392062DD404F18A
:101DA000430239463046C047013020D02368E568F9
:101DB000D9F8002003F00603042B08BFAD1AA3686E
:101DC00022690CBF25EAE57500259342C4BF9B1A22
:101DD000ED184FF000091A344D451AD1002008E0E3
:101DE0000123524639463046C047013003D14FF0F7
:101DF000FF30BDE8F0870135C3E7E1185A1C3020F9
:101E000081F84300224494F8451082F843100233CD
:101E1000C5E70123224639463046C0470130E6D0A7
:101E200009F10109D8E700002DE9F04301F1430C65
:101E30000C46097E85B06E291746064698460C9AD0
:101E400000F0B38022D8632936D00AD8002900F0E8
:101E5000B980582900F0838004F1420584F84210CB
:101E600032E0642901D06929F6D12068136805069B
:101E700003F104012AD51B681160002B03DA2D221F
:101E80005B4284F843206F480A2239E0732900F04E
:101E90009D8008D86F2920D07029DDD1236843F0B8
:101EA0002003236003E0752917D07829D4D1782343
:101EB00084F84530644855E01368191D1B681160AB
:101EC00004F1420584F8423001238CE01B68116064
:101ED00010F0400F18BF1BB2CFE713682568181D1C
:101EE0001060280601D51B6802E06806FBD51B8838
:101EF00054486F2914BF0A220822002184F8431095
:101F00006568A560002DC0F29580216821F004016C
:101F10002160002B3DD1002D40F08E806546082ABF
:101F20000BD12368DB0708D5236962689A42DEBFBC
:101F3000302305F8013C05F1FF35ACEB05032361C7
:101F4000CDF800803B4603AA21463046FFF7F6FE57
:101F500001304DD14FF0FF3005B0BDE8F083394876
:101F600084F84510136821681D1D1B6815600A065A
:101F70000BD5CA0744BF41F0200121601BB922687C
:101F800022F0200222601022B7E74D0648BF9BB224
:101F9000EFE76546B3FBF2F102FB1133C35C05F8D2
:101FA000013D0B460029F5D1B9E713682568616941
:101FB000181D106028061B6801D5196002E06A062A
:101FC000FBD51980002323616546B9E71368191D05
:101FD00011601D68626800212846FEF709F908B102
:101FE000401B606063682361002384F84330A7E7E7
:101FF00023692A4639463046C0470130AAD02368B3
:102000009B0713D4E068039B9842B8BF1846A3E728
:1020100001234A4639463046C04701309AD001353F
:10202000E368039A9B1AAB42F2DCEBE7002504F16C
:102030001909F5E7002BACD1037884F8423004F19C
:1020400042056CE7DD220008EE22000810B5431EB1
:102050000A44914200D110BD11F8014B03F8014F21
:10206000F7E7884210B501EB020307D8421E9942F8
:102070000AD011F8014B02F8014FF8E78342F5D975
:102080008118D21AD34200D110BD13F8014D01F8C6
:10209000014DF7E738B50546002945D051F8043C15
:1020A0000C1F002BB8BFE41800F0D2F81F4A1368C9
:1020B000104633B9636014602846BDE8384000F02C
:1020C000C8B8A3420CD921686218934204BF1A68A9
:1020D0005B68636004BF521822600460ECE713463B
:1020E0005A680AB1A242FAD919685818A0420BD10D
:1020F00020680144581882421960DDD11068526886
:102100005A6001441960D7E702D90C232B60D3E74A
:10211000206821188A4204BF11685268626004BFB7
:10212000091821605C60C7E738BD00BF900000203F
:1021300070B5CD1C25F0030508350C2D38BF0C25D6
:10214000002D064601DBA94203D90C233360002091
:1021500070BD00F07DF8214A1468214691B9204CE9
:1021600023681BB9304600F063F8206029463046EA
:1021700000F05EF8431C24D10C233360304600F09D
:1021800068F8E4E70B685B1B18D40B2B0FD90B60C6
:10219000CD50CC18304600F05CF804F10B00231D44
:1021A00020F00700C31AD3D05A42E250D0E78C4245
:1021B0004B6816BF636013600C46EBE70C4649683A
:1021C000CCE7C41C24F00304A04205D0211A3046F9
:1021D00000F02EF80130CFD02560DBE79000002022
:1021E00094000020F8B5074614460E4621B9114662
:1021F000BDE8F840FFF79CBF22B9FFF74BFF25462B
:102200002846F8BD00F026F8A0420FD221463846F5
:10221000FFF78EFF05460028F2D031462246FFF731
:1022200015FF31463846FFF735FFE9E73546E7E762
:1022300038B5064C0023054608462360FEF750FCDF
:10224000431C02D1236803B12B6038BD9C000020E1
:102250007047704751F8043C181F002BBCBF0B5847
:10226000C0187047F8B500BFF8BC08BC9E46704760
:0C227000F8B500BFF8BC08BC9E467047E3
:10227C00252E32643A252E32643A252E3264000023
:10228C00363330323133333836333032313338330E
:10229C000000000000040240000402400004024060
:1022AC00000402400100020004000800004010502D
:1022BC0000000000000000000102030406070809EA
:1022CC00232D302B2000686C4C0065666745464713
:1022DC000030313233343536373839414243444596
:1022EC004600303132333435363738396162636405
:0422FC006566000013
:08230000C0DFFF7F01000000B7
:04230800C501000803
:04230C00A101000823
:102310000024F40010000000010000001000002064
:1023200000000000000000000000000000000000AD
:10233000000000000000000000000000000000009D
:10234000000000000000000000000000000000008D
:10235000000000000000000000000000000000007D
:10236000000000000000000000000000000000006D
:10237000000000000000000000000000000000005D
:0400000508000B657F
:00000001FF
